:020000040800F2
:10000000889A002029030008A5630008F13C000835
:10001000714F000829070008398800080000000017
:10002000000000000000000000000000690200085D
:10003000A30C000800000000C5020008357B000882
:100040004303000843030008430300084303000878
:100050004303000843030008430300084303000868
:10006000430300084303000843030008D90A0008BB
:10007000E90A0008F90A0008090B0008190B000832
:10008000290B0008390B000843030008430300084C
:100090002D0700083D07000843030008430300083C
:1000A0004303000843030008430300084303000818
:1000B000317C0008417C0008517C000843030008A3
:1000C00043030008430300084303000843030008F8
:1000D0004303000831870008458700081588000899
:1000E00043030008430300084303000843030008D8
:1000F000430300084303000843030008490B0008BA
:1001000043030008430300084303000843030008B7
:10011000297F0008E97F0008430300084303000823
:1001200043030008590B0008690B0008430300084B
:100130004303000843030008430300084303000887
:100140005908000869080008430300084303000831
:1001500043030008790B0008890B00082988000870
:100160004303000843030008430300084303000857
:100170004303000843030008430300080000000095
:10018000430300084303000800F002F800F05CF8A5
:100190000AA090E8000C82448344AAF10107DA45E2
:1001A00001D100F051F8AFF2090EBAE80F0013F0D8
:1001B000010F18BFFB1A43F001031847F0E20000DB
:1001C00010E300000A444FF0000C10F8013B13F05C
:1001D000070408BF10F8014B1D1108BF10F8015BA0
:1001E000641E05D010F8016B641E01F8016BF9D193
:1001F00013F0080F1EBF10F8014BAD1C0C1B09D1EA
:100200006D1E58BF01F801CBFAD505E014F8016B5B
:1002100001F8016B6D1EF9D59142D6D370470000ED
:100220000023002400250026103A28BF78C1FBD8FF
:10023000520728BF30C148BF0B6070471FB50EF092
:1002400012F81FBD10B510BD00F0DCF91146FFF724
:10025000F5FF0BF073F800F0FAF903B4FFF7F2FFC3
:1002600003BC00F0FDF900002C4B19680868B0E8E9
:10027000F04F80F30988BFF36F8F4FF0000080F3D9
:10028000118870470000000008480068006880F38B
:1002900008884FF0000080F3148862B661B6BFF39F
:1002A0004F8FBFF36F8F00DF00BF00BF08ED00E08E
:1002B000DFF80C00016841F470010160704700BF75
:1002C00088ED00E0EFF30980BFF36F8F134B1A68DE
:1002D0001EF0100F08BF20ED108A20E9F04F1060CB
:1002E00009B44FF0500080F31188BFF34F8FBFF374
:1002F0006F8F0BF07DFF4FF0000080F3118809BC79
:1003000019680868B0E8F04F1EF0100F08BFB0EC95
:10031000108A80F30988BFF36F8F7047AC03002009
:10032000EFF30580704700000948804709480047FF
:10033000FEE7FEE7FEE7FEE7FEE7FEE7FEE7FEE795
:10034000FEE7FEE704480549054A064B70470000F2
:100350001D7C00088901000888940020889A0020EC
:10036000889600208896002053EA020C00F06980ED
:100370002DE9F04B4FF00006002B1FBFB3FA83F5B9
:1003800003FA05F424FA05F65E4012BF1643B2FAEA
:1003900082F502FA05F4C5F120051EBF22FA05FC1C
:1003A00044EA0C04203556EA044C4FEA144418BFC2
:1003B000641C4FF000084FF00009904271EB030CF1
:1003C00039D3002919BFB1FA81F701FA07F6B0FA5B
:1003D00080F700FA07F6C7F120071EBF20FA07FCD6
:1003E00046EA0C062037B6FBF4FCA7EB0507103FE6
:1003F00007F01F0BCBF120060CFA0BFB2CFA06F6CC
:1004000044BFB3460026202FA4BF5E464FF0000B2A
:100410005BEA060C08BF4FF0010B19EB0B09ABFBB5
:10042000027C48EB0608C01B06FB02CC0BFB03CC8E
:1004300071EB0C01C1E70B46024641464846BDE858
:10044000F08B13B54FF000004FF00001AFF30080C8
:10045000BDE81C407047032A40F2308010F0030CC6
:1004600000F0158011F8013BBCF1020F624498BF07
:1004700011F801CB00F8013B38BF11F8013BA2F1A4
:10048000040298BF00F801CB38BF00F8013B11F01F
:10049000030300F02580083AC0F0088051F8043BBF
:1004A000083A51F804CBA0E80810F5E7121D5CBF2C
:1004B00051F8043B40F8043BAFF30080D20724BF5F
:1004C00011F8013B11F801CB48BF11F8012B24BFF3
:1004D00000F8013B00F801CB48BF00F8012B704742
:1004E00010B5203AC0F00B80B1E81850203AA0E8CF
:1004F0001850B1E81850A0E81850BFF4F5AF5FEA03
:10050000027C24BFB1E81850A0E8185044BF18C9B5
:1005100018C0BDE810405FEA827C24BF51F8043B5C
:1005200040F8043B08BF7047D20728BF31F8023BB0
:1005300048BF11F8012B28BF20F8023B48BF00F844
:10054000012B70474FF000020429C0F0128010F018
:10055000030C00F01B80CCF1040CBCF1020F18BF9F
:1005600000F8012BA8BF20F8022BA1EB0C0100F032
:100570000DB85FEAC17C24BF00F8012B00F8012B05
:1005800048BF00F8012B70474FF0000200B513463A
:1005900094469646203922BFA0E80C50A0E80C50A3
:1005A000B1F12001BFF4F7AF090728BFA0E80C5054
:1005B00048BF0CC05DF804EB890028BF40F8042B4D
:1005C00008BF704748BF20F8022B11F0804F18BFBA
:1005D00000F8012B704770477047704710B500F066
:1005E00009F8006810BD10B5044600F003F8046077
:1005F00010BD000000487047289400200048704754
:10060000289400207546FFF7F9FFAE4605006946BD
:10061000534620F00700854618B020B5FFF792FE3C
:10062000BDE820404FF000064FF000074FF00008F3
:100630004FF0000B21F00701AC46ACE8C009ACE874
:10064000C009ACE8C009ACE8C0098D46704710B5D8
:100650000446AFF300802046BDE81040FFF7FDBD23
:1006600001491820ABBEFEE72600020070470000DB
:1006700070B52DED068BB0EE408AF0EE608AB0EEDC
:10068000419AF0EE619AB0EE42AA04460D46164930
:100690000C864D86084680ED0DAAB2EE020A28EEC1
:1006A000000A80ED0E0AB2EE020A28EE800A80ED02
:1006B0000F0A80ED109AC0ED119A0AF0DFFE0122B8
:1006C00051030A4801F0B6FB40F6FF7322220649A7
:1006D000074803F02CFA00224FF40051034801F0C0
:1006E000A9FBBDEC068B70BDC0390020001802408C
:1006F0002C520020F0EE400AF5EEC00AF1EE10FA9E
:1007000002DDB0EE600A7047B1EE600AFBE7F0EE82
:10071000400AF5EEC00AF1EE10FA02DDB0EE600A12
:100720007047B1EE600AFBE700BFFEE710B5024874
:1007300000F0ECFC10BD0000F84F002010B502489E
:1007400000F0E4FC10BD0000F84F002030B589B087
:1007500004464FF4007003900020059006908DF839
:10076000200008200790B4F8B601000A8DF80000B8
:1007700094F8B6018DF80100B4F87603000A8DF8FC
:10078000020094F876038DF80300B4F83605000AE9
:100790008DF8040094F836058DF80500B4F8F606D7
:1007A000000A8DF8060094F8F6068DF8070001E0BF
:1007B000681C85B202AB6A4603A9054800F0ABFA93
:1007C00018B140F6FF708542F2DB09B030BD000081
:1007D000F84F002030B589B0044640F2FF10039076
:1007E00000200590069008200790B4F8B608000A8B
:1007F0008DF8040094F8B6088DF80500B4F8760A70
:10080000000A8DF8060094F8760A8DF80700B4F80F
:10081000360C000A8DF8080094F8360C8DF80900A3
:10082000B4F8F60D000A8DF80A0094F8F60D8DF86C
:100830000B0001E0681C85B2012301AA03A9054849
:1008400000F069FA18B140F6FF708542F2DB09B09A
:1008500030BD0000F84F002010B5024800F056FCF3
:1008600010BD00002050002010B5024800F04EFCE2
:1008700010BD00002050002010B52DED060B2DED11
:10088000028B9FED130AB0EE408A9FED110AF0EE45
:10089000408A9DED060ADDED030A30EE600AB0EEF7
:1008A000408A9DED050ADDED020A30EE600AF0EEA9
:1008B000408AF0EE680AB0EE480A08F077FEDFEDF5
:1008C000050A20EE200ABDEC028B06B010BD000028
:1008D00000000000E12E654210B52DED060B2DED58
:1008E000068B9DED060ADDED090A30EE600A20EE6A
:1008F000000ADDED070A9DED0A1A70EEC10A9DEDB2
:10090000071ADDED0A1A31EE611A00EE810A10EEC7
:10091000101A08460DF036FC41EC1A0BB0EE4A0AEC
:10092000F0EE6A0A09F0DCF9B0EE409AF0EE609A57
:1009300051EC190B0CF05CFE08EE100AB0EE480A00
:10094000BDEC068B06B010BD00B58BB00020079043
:1009500001200890002001900290039004900590DF
:100960000120099000200A90069001A9064800F095
:100970007DFA054800F0C5FE0221034800F0B6F9F3
:1009800000200BB000BD0000F84F002000B58BB078
:100990000020079001200890002001900290039011
:1009A000049005900120099000200A900E200690E6
:1009B00001A9064800F05AFA044800F0A2FE0221FC
:1009C000024800F093F900200BB000BD2050002039
:1009D0000FB470B5DDE90B64049800F47F60B0F5E6
:1009E000007F57D10698002854D1049800F00F05D5
:1009F0000021681EC0EBC00004EB8010818170787C
:100A0000317840EA0120691EC1EBC10104EB81117C
:100A10008989084301B2681EC0EBC00004EB801056
:100A200081810021681EC0EBC00004EB8010C181F1
:100A3000F078B17840EA0120691EC1EBC10104EBF6
:100A40008111C989084301B2681EC0EBC00004EBE4
:100A50008010C1810021681EC0EBC00004EB801033
:100A600081747079317940EA0120691EC1EBC101BE
:100A700004EB8111897C084341B2681EC0EBC000C1
:100A800004EB80108174B179681EC0EBC00004EBE8
:100A900080100182204603F0E7FA04F5E07003F0CD
:100AA000E3FA04F5607003F0DFFA04F5A86003F0E0
:100AB000DBFA04F5E06003F0D7FA04F50C6003F00C
:100AC000D3FA04F5286003F0CFFA04F5446003F08C
:100AD000CBFA70BC5DF814FB10B5024800F0B4FE10
:100AE00010BD00003053002010B5024800F0ACFEED
:100AF00010BD00007055002010B5024800F0A4FEA3
:100B000010BD00007052002010B5024800F09CFE9D
:100B100010BD0000D055002010B5024800F094FE32
:100B200010BD0000D052002010B5024800F08CFE2D
:100B300010BD0000B054002010B5024800F084FE43
:100B400010BD00001055002010B5024800F07CFEDA
:100B500010BD00009053002010B5024800F074FE54
:100B600010BD00003056002010B5024800F06CFEA9
:100B700010BD0000F053002010B5024800F064FEE4
:100B800010BD00009056002010B5024800F05CFE39
:100B900010BD00005054002001460878103818237A
:100BA000B0FBF3F20848805CC865032A05D90868E1
:100BB0006FF30900001D886503E008686FF3090002
:100BC0008865886D7047000008E300080146002032
:100BD0008A6A8B69CBB932B1012A0DD0022A03D0BF
:100BE000032A10D10EE000BFCB6A03F08073B3F18B
:100BF000807F00D1012007E0CB6AB3F1C07F00D134
:100C0000012001E000E000BF34E08B69B3F5005F34
:100C10001AD132B1012A07D0022A03D0032A11D1F6
:100C20000AE000BF01200EE0CB6A03F08073B3F14D
:100C3000807F00D1012006E0CB6AB3F1C07F00D1F4
:100C4000012000E000BF15E032B1012A05D0022AE0
:100C500004D0032A0CD103E000BF00BF012008E04C
:100C6000CB6A03F08073B3F1807F00D1012000E0F4
:100C700000BF00BF704730B50468246824F48024A6
:100C800005682C60046863608468402C04D10468A3
:100C9000A2600468E16003E00468A1600468E260A7
:100CA00030BD704772B600BFFEE7000008B50D48C2
:100CB0000068C06840F010000A490968C86000BFB9
:100CC0000020009007480068006800900548006810
:100CD0004068009000BF00BF14220349014802F0A1
:100CE00003FF08BD2C520020F021002010B5024661
:100CF00092F82030012B01D0022B06D110684069F8
:100D0000084314686061002010BD506A40F48020E0
:100D100050620120F8E7F0B504460D461E4694F8EF
:100D2000207020688368A86800B900E000BF012F28
:100D300001D0022F7CD103F0806030B903F0006055
:100D400018B903F08050002873D0C3F30161022961
:100D500005D9606A40F4000060620120F0BD012006
:100D600088403060A86860B9B5F800C0E86840EA1B
:100D70004C5C206800F5C07000EB0110C0F800C0AA
:100D80000FE0D5E901C040EACC00D5F80CC040EA3C
:100D90000C00D4F800C00CF5C07C0CEB011CCCF8A6
:100DA0000000D5F810C0206800F5C07000EB0110FD
:100DB000C0F804C0287D01280ED1206800F5C0705D
:100DC00000EB0110406840F4807C206800F5C070A2
:100DD00000EB0110C0F804C0D079000692F806C0FC
:100DE00040EA0C4092F805C040EA0C2C10794CEA1D
:100DF000000C206800F5C07000EB0110C0F80CC0BA
:100E0000D078000692F802C040EA0C4092F801C087
:100E100040EA0C2092F800C040EA0C00D4F800C070
:100E20000CF5C07C0CEB011CCCF80800206801E03C
:100E300016E00FE000F5C07000EB0110006840F014
:100E4000010C206800F5C07000EB0110C0F800C074
:100E5000002083E7606A40F40010606201207DE7B3
:100E6000606A40F480206062012077E7F0B50446B4
:100E70000A46216894F82050012D01D0022D7ED120
:100E8000424901F50071086840F0010008600868F7
:100E900020F47C5008600868566A40EA0620086022
:100EA000107D00F01F06012000FA06F3C869984380
:100EB000C861A1F50071D069C8B9D1F80C02984396
:100EC000C1F80C02908880B2968940EA064601F586
:100ED0001070576940F83760108880B2168940EA70
:100EE000064601F51070576900EBC7004660D069EF
:100EF000012819D1D1F80C021843C1F80C029088CE
:100F000080B2168840EA064601F51070576940F82D
:100F10003760908980B2168940EA064601F5107064
:100F2000576900EBC7004660906928B9D1F8040200
:100F30009843C1F8040204E0D1F804021843C1F850
:100F40000402106928B9D1F814029843C1F81402B8
:100F500004E0D1F814021843C1F81402106A012801
:100F600004D1D1F81C021843C1F81C02D1F80002C8
:100F700020F00100C1F800020020F0BDFFE7606A28
:100F800040F4802060620120F7E700000064004028
:100F9000704770B5044694F82050012D01D0022D01
:100FA0007DD151B92068C06800F0030080B9606A43
:100FB00040F400106062012070BD2068006900F0FC
:100FC000030028B9606A40F4001060620120F3E772
:100FD000206800F5D87000EB0110006800F00400F4
:100FE0009060906840B9206800F5D87000EB01105F
:100FF0000068400D106007E0206800F5D87000EB35
:1010000001100068C0085060206800F5D87000EB3F
:101010000110006800F00200D060206800F5D87070
:1010200000EB0110406800F00F001061206800F52F
:10103000D87000EB0110406800F47F40000A906116
:10104000206800F5D87000EB01104068000C50617A
:10105000206800F5D87000EB0110806818702068D7
:1010600000F5D87000EB0110806800F47F40000AA2
:101070005870206800F5D87000EB0110806800F40B
:101080007F00000C9870206800F5D87000EB01100C
:101090008068000ED870206800F5D87000E02FE05E
:1010A00000EB0110C0681871206800F5D87000EBE3
:1010B0000110C06800F47F40000A5871206800F5F4
:1010C000D87000EB0110C06800F47F00000C98712C
:1010D000206800F5D87000EB0110C068000ED871D0
:1010E00031B92068C06840F020002668F06005E053
:1010F0002068006940F020002668306100205BE72E
:10110000606A40F480206062012055E72DE9F05FBD
:1011100004460025206846692068D0F804902068BD
:1011200087682068D0F80CA02068D0F810B020683C
:10113000D0F8188006F00100002855D007F0010013
:10114000C0B101202168886007F0020018B1204674
:1011500000F007FB0EE007F0040010B145F4006555
:1011600008E007F0080010B145F4805502E0204681
:1011700000F0F6FA07F48070C8B14FF4807021686F
:10118000886007F4007018B1204600F0ECFA0EE019
:1011900007F4806010B145F4005508E007F40060E2
:1011A00010B145F4804502E0204600F0DBFA07F478
:1011B0008030C8B14FF480302168886007F4003077
:1011C00018B1204600F0D1FA0EE007F4802010B1EB
:1011D00045F4004508E007F4002010B145F48035DF
:1011E00002E0204600F0C0FA06F0080038B10AF02C
:1011F000100020B145F4007510202168C86006F089
:10120000040040B10AF0080028B108202168C86035
:10121000204600F01DFA06F0020038B12068C068D0
:1012200000F0030010B1204600F014FA06F0400070
:1012300038B10BF0100020B145F480651020216812
:10124000086106F0200040B10BF0080028B108202A
:1012500021680861204600F051FA06F0100038B10C
:101260002068006900F0030010B1204600F047FA42
:1012700006F4003040B109F0100028B110202168B8
:101280004860204600F03CFA06F4803040B109F096
:10129000080028B1082021684860204600F066FA5E
:1012A00006F4004088B309F0040078B306F48070B7
:1012B00020B108F0010008B145F0010506F4007006
:1012C00020B108F0020008B145F0020506F4806084
:1012D00020B108F0040008B145F0040506F40060F0
:1012E000A0B108F0700088B108F07000402817D055
:1012F00006DC10280BD020280CD0302819D10CE0A7
:10130000502810D0602814D110E01DE019E045F0FD
:1013100008050FE045F010050CE045F0200509E058
:1013200045F0400506E045F0800503E045F4807592
:1013300000E000BF00BF2068806920F070002168D5
:1013400088610420216848602DB1606A284360628A
:101350002046FFF71DFEBDE8F09F70B504460CB9AE
:10136000012070BD94F8200010B9204600F0B0F8BC
:101370002068006840F001002168086000F060FD0E
:1013800005460DE000F05CFD401B0A2808D9606AA4
:1013900040F400306062052084F820000120E0E77E
:1013A0002068406800F001000028EBD02068006849
:1013B00020F002002168086000F042FD05460DE0C3
:1013C00000F03EFD401B0A2808D9606A40F4003056
:1013D0006062052084F820000120C2E72068406890
:1013E00000F002000028EBD1207E012806D1206801
:1013F000006840F080002168086005E0206800680F
:1014000020F0800021680860607E012806D12068F5
:10141000006840F040002168086005E0206800682E
:1014200020F0400021680860A07E012806D12068D5
:10143000006840F020002168086005E0206800682E
:1014400020F0200021680860E07E012806D1206895
:10145000006820F010002168086005E0206800683E
:1014600040F0100021680860207F012806D1206824
:10147000006840F008002168086005E02068006806
:1014800020F0080021680860607F012806D12068EC
:10149000006840F004002168086005E020680068EA
:1014A00020F0040021680860D4E9020108432169A2
:1014B0000843616908436168491E08432168C8619F
:1014C00000206062012084F82000002049E700002D
:1014D00010B586B00446142101A8FFF755F8574906
:1014E000206888424AD156480068401C5449086028
:1014F0000846006801280FD100BF00200090514825
:10150000006840F000704F4908600846006800F02D
:101510000070009000BF00BF00BF0020009049484D
:101520001038006840F0020046491039086008464B
:10153000006800F00200009000BF00BF4FF4407050
:1015400001900220029000200390032004900920C3
:10155000059001A93C4800F06BFB002205211420F6
:1015600000F032FD142000F01FFD0022052115209F
:1015700000F02AFD152000F017FD5CE033492068DB
:10158000884258D100BF002000902E48006840F0EB
:1015900080602C4908600846006800F08060009078
:1015A00000BF00BF26480068401C25490860084667
:1015B000006801280FD100BF00200090214800687A
:1015C00040F000701F4908600846006800F0007095
:1015D000009000BF00BF00BF0020009019481038E5
:1015E000006840F00200174910390860084600689A
:1015F00000F00200009000BF00BF602001900220B8
:10160000029000200390032004900920059001A976
:101610000D4800F00DFB00220521402000F0D4FC15
:10162000402000F0C1FC00220521412000F0CCFC4C
:10163000412000F0B9FC06B010BD0000006400407D
:101640009803002040380240000402400068004037
:101650007047000070B58EB0054600BF5021EFF313
:10166000118081F31188BFF34F8FBFF36F8F00BFDD
:1016700006461E48854217D105AB07AA0021284619
:10168000FFF787FC04465CB9194805A9CDE90310AA
:101690000BA807C88DE8070007A80FC8FFF798F93F
:1016A00002212846FFF722FB1248854217D105ABDD
:1016B00007AA00212846FFF76CFC04465CB90E48D7
:1016C00005A9CDE903100BA807C88DE8070007A8F6
:1016D0000FC8FFF77DF902212846FFF707FB00BF7F
:1016E00086F3118800BF0EB070BD0000F84F0020D7
:1016F000140400202050002014120020704770476E
:10170000704770B5044694F82000012822D10220C9
:1017100084F820002068006820F00100216808603B
:1017200000F08EFB05460DE000F08AFB401B0A2806
:1017300008D9606A40F400306062052084F8200017
:10174000012070BD2068406800F001000028EBD146
:101750006062F6E7606A40F4002060620120F0E712
:10176000704770477047704770477047704770B553
:101770000446A56D00F064FB064694F83500022887
:1017800008D08020606500BF002084F8340000BFCE
:10179000012070BD2068006820F0160021680860F4
:1017A0002068406920F0800021684861206C08B9F9
:1017B000A06C28B12068006820F00800216808604B
:1017C0002068006820F001002168086010E000F047
:1017D00037FB801B05280BD920206065032084F887
:1017E000350000BF002084F8340000BF0320D0E79C
:1017F0002068006800F001000028E8D194F85C102F
:101800003F208840A860012084F8350000BF0020F8
:1018100084F8340000BF00BFBBE7014691F83500F3
:10182000022803D08020486501207047052081F8F8
:1018300035000868006820F001000A681060002088
:10184000F3E70146486D7047F8B504460020009064
:101850008C4800684FF41651B0FBF1F7A56D2E6867
:1018600094F85C1008208840304098B120680068E7
:1018700000F0040070B12068006820F004002168C6
:10188000086094F85C1008208840A860606D40F003
:101890000100606594F85C1001208840304068B118
:1018A0002068406900F0800040B194F85C1001208D
:1018B0008840A860606D40F00200606594F85C109C
:1018C00004208840304068B12068006800F00200C1
:1018D00040B194F85C1004208840A860606D40F02E
:1018E0000400606594F85C1010208840304078B3A4
:1018F0002068006800F0080050B394F85C101020D5
:101900008840A8602068006800F4802080B12068CA
:10191000006800F4002028B9206CC8B12046216C72
:10192000884715E0A06C98B12046A16C88470FE06D
:101930002068006800F4807028B92068006820F0F2
:10194000080021680860206C10B12046216C88478F
:1019500094F85C10202088403040002865D0206832
:10196000006800F0100000285FD094F85C10202080
:101970008840A86094F83500052828D120680068C0
:1019800020F01600216808602068406920F080007F
:1019900021684861206C08B9A06C28B120680068F3
:1019A00020F008002168086094F85C103F2088400F
:1019B000A860012084F8350000BF002084F83400BE
:1019C00000BF206D10B12046216D8847F8BD20680A
:1019D000006800F4802080B12068006800F40020D6
:1019E00028B9606C10B12046616C88471DE0E06B3F
:1019F000D8B12046E16B884717E02068006800F402
:101A0000807068B92068006820F0100021680860C4
:101A1000012084F8350000BF002084F8340000BFA6
:101A2000E06B10B12046E16B8847606D38B3606DA4
:101A300000F00100F0B1052084F83500206800684E
:101A400020F001002168086000BF0098401C009051
:101A5000B84200D905E02068006800F001000028C5
:101A6000F3D100BF012084F8350000BF002084F8C6
:101A7000340000BFE06C10B12046E16C884700BF25
:101A8000A4E70000A80300202DE9F041044600254A
:101A900000F0D6F9074614B90120BDE8F081606A6C
:101AA00000B100BF022084F8350000BF002084F898
:101AB000340000BF2068006820F001002168086041
:101AC0000AE000F0BDF9C01B052805D9202060659B
:101AD000032084F83500E0E72068006800F001008A
:101AE0000028EED12068056821480540D4E90101AD
:101AF0000843E16808432169084361690843A16913
:101B00000843E1690843216A08430543606A0428E1
:101B100003D1D4E90B010843054320680560206820
:101B2000456925F00705606A0543606A04280DD100
:101B3000A06A0543E06A48B12046FFF747F828B19C
:101B400040206065012084F83500A6E720684561E3
:101B50002046FFF721F8064694F85C103F208840A5
:101B6000B06000206065012084F83500002094E713
:101B70003F8010F02DE9F04704460D4616461F46FB
:101B80004FF00008D4F8589000BF94F834000128B2
:101B900002D10220BDE8F087012084F8340000BFA4
:101BA00094F83500012825D1022084F83500002062
:101BB00060653B46324629462046FFF75CF894F8BC
:101BC0005C103F208840C9F808002068006840F099
:101BD000160021680860206C28B12068006840F079
:101BE0000800216808602068006840F00100216852
:101BF000086006E000BF002084F8340000BF4FF00A
:101C000002084046C6E7000070B5044600F018F927
:101C100006462546681C10B104480078054400BFFC
:101C200000F00EF9801BA842FAD370BDA403002077
:101C3000F8B502460B460025002400200021D6E01E
:101C4000012606FA01F51E6806EA0504AC4274D1C5
:101C50001E7906F00306012E04D01E7906F0030655
:101C6000022E13D190684F000326BE40B0434F00B0
:101C7000DE68BE4030439060506801268E40B0431D
:101C80001E79C6F300168E40304350601E7906F070
:101C90000306032E09D0D0684F000326BE40B04390
:101CA0004F009E68BE403043D0601E7906F00306A8
:101CB000022E13D1CF0802F1200656F827004E0756
:101CC000F70E0F26BE40B0434F07FF0E1E69BE4001
:101CD0003043CF0802F1200646F8270010684F0075
:101CE0000326BE40B0431E7906F003064F00BE40F7
:101CF000304310605E6806F44036002E76D000BF98
:101D0000002600963C4E366846F480463A4F3E60C8
:101D10003E46366806F48046009600BF00BF374E48
:101D20008F0856F827008E07370F0F26BE40B043A6
:101D3000334EB24202D1002624E057E0314EB24287
:101D400001D101261EE0304EB24201D1022619E037
:101D50002E4EB24201D1032614E02D4EB24201D1E3
:101D600004260FE02B4EB24201D105260AE02A4E8E
:101D7000B24201D1062605E0284EB24201D1072623
:101D800000E008268F073F0FBE4030431B4E8F08F0
:101D900046F82700224E3068A0435E6806F480169D
:101DA00006B120431E4E3060361D3068A0435E6889
:101DB00006F4001606B12043194E361D3060184E49
:101DC000361F3068A0435E6806F4003606B1204333
:101DD000134E361F3060361F3068A0435E6806F42D
:101DE000803606B120430E4E083E3060491C102953
:101DF000FFF426AFF8BD0000443802400838014027
:101E0000000002400004024000080240000C0240B2
:101E1000001002400014024000180240001C024062
:101E2000083C0140024613690B400BB1012000E061
:101E3000002070470AB1816101E00B0483617047A3
:101E400001480068704700009C03002003480068B8
:101E50000349097808440149086070479C03002041
:101E6000A403002010B50D48006840F400700B4931
:101E700008600846006840F4806008600846006812
:101E800040F480700860032000F0DCF80F2000F0C0
:101E900007F800F05FF8002010BD0000003C024091
:101EA0002DE9F04188B004460027B84600BF002065
:101EB00001902348006840F002002149086008466C
:101EC000006800F00200019000BF00BF02A903A853
:101ED00000F08EF9069F1FB900F0B2F9054602E046
:101EE00000F0AEF945001748B5FBF0F0A0F101088D
:101EF00015481649086040F2E7311448C160C0F83F
:101F00000480002101618160816100F0BBFC064614
:101F100096B90E4800F02AFD06466EB91D2000F065
:101F200043F8102C07D2002221461D2000F04CF867
:101F30000748046000E00126304608B0BDE8F081A3
:101F40004038024040420F0000040040F05600209C
:101F5000A003002008B500BF0020009011480068D1
:101F600040F480400F4908600846006800F4804053
:101F7000009000BF00BF00BF00200090081F006855
:101F800040F08050091F08600846006800F080504B
:101F9000009000BF00BF00220F21901E00F014F837
:101FA00008BD00004438024001460846002809DB0D
:101FB00000F01F0301229A4043099B0003F1E02334
:101FC000C3F8002100BF70472DE9F05F80460D4641
:101FD0001646002707F042FA074639462A46334696
:101FE00001F00700C0F1070ABAF1040F02D94FF05F
:101FF000040A01E0C0F1070AD14600F1040ABAF16F
:10200000070F02D24FF0000A01E0A0F1030AD44604
:102010004FF0010A0AFA09FAAAF1010A0AEA020AC9
:102020000AFA0CFA4FF0010B0BFA0CFBABF1010BA7
:102030000BEA030B4AEA0B042146404607F016FA66
:10204000BDE8F09F00BF00F00702064B19684FF68D
:10205000FF031940044B0B4343EA0221014B196073
:1020600000BF70470CED00E00000FA0570B50446B3
:102070000D460CB9012070BD5848006800F00700FB
:10208000A84209D255490D700846006800F00700C3
:10209000A84201D00120EEE7207800F002000228DB
:1020A0001DD1207800F00400042805D14C480068B8
:1020B00040F4E0504A490860207800F00800082801
:1020C00005D14748006840F46040454908604448ED
:1020D000006820F0F000A1680843414908602078BA
:1020E00000F00100A8B36068012807D13C48083817
:1020F0000068C0F34040B8B90120BCE7606802281E
:1021000002D06068032807D1354808380068C0F35A
:10211000406048B90120AEE7314808380068C0F394
:10212000400008B90120A6E72D48006820F0030010
:10213000616808432A490860FFF782FE064609E005
:10214000FFF77EFE801B41F28831884202D90320CE
:1021500091E707E02248006800F00C006168B0EBEE
:10216000810FEDD11D48006800F00700A84209D991
:102170001A490D700846006800F00700A84201D017
:10218000012078E7207800F00400042807D11448E3
:10219000006820F4E050E1680843114908602078A5
:1021A00000F00800082808D10D48006820F46040BD
:1021B000216940EAC1000A49086000F061F8084955
:1021C0000968C1F30311074A515CC8400649086019
:1021D00006480068FFF764FE00204CE7003C024020
:1021E0000838024010E30008A8030020A0030020E4
:1021F0000F2202600D4A126802F0030242600B4A8D
:10220000126802F0F0028260084A126802F4E0529A
:10221000C260064A126802F46042D2080261044AAF
:10222000126802F007020A60704700000838024096
:10223000003C02400148006870470000A8030020ED
:1022400000B5FFF7F7FF04490968C1F38221034A8B
:10225000515CC84000BD00000838024020E300087F
:1022600000B5FFF7E7FF04490968C1F34231034AAB
:10227000515CC84000BD00000838024020E300085F
:102280002DE9F047002400250026A14625480068D6
:1022900000F00C0020B1042805D008283AD105E050
:1022A000DFF8849039E0DFF8849036E01D48001FA5
:1022B000006800F03F041B48001F006800F4800025
:1022C00078B11A481749091F0968C1F38811A0FBA2
:1022D00001700146224600233846FEF745F80546C0
:1022E0000EE011480F49091F0968C1F38811A0FBCE
:1022F00001700146224600233846FEF735F80546B0
:102300000848001F0068C0F30140401C4600B5FBB0
:10231000F6F902E0DFF8109000BF00BF4846BDE8C4
:10232000F0870000083802400024F40000127A0010
:10233000F8B504460CB90120F8BD207800F0010082
:10234000002874D0F948006800F00C0004280DD073
:10235000F648006800F00C00082813D1F348001F6D
:10236000006800F48000B0F5800F0BD1EF4808380A
:102370000068C0F34040002859D06068002856D15A
:102380000120D9E700BF6068B0F5803F08D1E74879
:102390000838006840F48030E449083908601EE0DD
:1023A0006068B0F5A02F0DD1E0480838006840F40F
:1023B0008020DE49083908600846006840F4803013
:1023C00008600CE0D9480838006820F48030D7490C
:1023D000083908600846006820F48020086000BFC3
:1023E000606890B1FFF72CFD054606E0FFF728FD79
:1023F000401B642801D903209EE7CC4808380068B8
:10240000C0F340400028F1D011E0FFF719FD054668
:1024100006E0FFF715FD401B642801D903208BE778
:10242000C24808380068C0F340400028F1D1207845
:1024300000F0020002285FD1BC48006800F00C00E8
:1024400058B1BA48006800F00C0008281CD1B74801
:10245000001F006800F48000B0B9B4480838006874
:10246000C0F3400020B1E068012801D0012063E7FB
:10247000AE480838006820F0F800216940EAC10041
:10248000AA490839086037E0E06800B30120A8498C
:102490000860FFF7D5FC054606E0FFF7D1FC401BBE
:1024A000022801D9032047E7A04808380068C0F394
:1024B00040000028F1D09D480838006820F0F8005E
:1024C000216940EAC10099490839086014E00020F8
:1024D00097490860FFF7B4FC054606E0FFF7B0FC3B
:1024E000401B022801D9032026E7904808380068DD
:1024F000C0F340000028F1D1207800F0080008283F
:102500002CD16069A8B101208A490860FFF798FCC6
:10251000054606E0FFF794FC401B022801D9032082
:102520000AE782486C300068C0F340000028F1D010
:1025300014E000207F490860FFF782FC054606E0B2
:10254000FFF77EFC401B022801D90320F4E6774800
:102550006C300068C0F340000028F1D1207800F012
:102560000400042870D1002770483830006800F05B
:10257000805090B900BF002000906C48383000684F
:1025800040F080506949383108600846006800F022
:102590008050009000BF00BF01276748006800F42A
:1025A0008070B0B96448006840F480706249086087
:1025B000FFF746FC054606E0FFF742FC401B0228F9
:1025C00001D90320B8E65C48006800F48070002858
:1025D000F2D000BFA068012808D1544868300068D4
:1025E00040F001005149683108601DE0A0680528ED
:1025F0000DD14E486830006840F004004B49683106
:1026000008600846006840F0010008600CE0474898
:102610006830006820F001004449683108600846CD
:10262000006820F00400086000BFA068A8B1FFF7B0
:1026300007FC054609E0FFF703FC401B41F2883127
:10264000884202D9032077E626E0384868300068DF
:10265000C0F340000028EED013E0FFF7F1FB054681
:1026600008E0FFF7EDFB401B41F28831884201D9B9
:10267000032061E62D4868300068C0F34000002860
:10268000EFD1012F07D129483830006820F0805061
:1026900026493831086000BFA069002845D023488A
:1026A000006800F00C0008285DD0A069022845D120
:1026B00000201F490866FFF7C3FB054606E0FFF749
:1026C000BFFB401B022801D9032035E61748083814
:1026D0000068C0F340600028F1D1D4E90701084345
:1026E000616A40EA81110122A06AC2EB500041EA0E
:1026F00000412C20005D41EA00600C49091F086080
:1027000001200B490866FFF79BFB054606E0FFF733
:1027100097FB401B022801D903200DE60348083827
:102720000068C0F340600028F1D049E0083802405A
:1027300000004742800E47420070004000202149BF
:102740000866FFF77DFB054606E0FFF779FB401BB7
:10275000022801D90320EFE51B480068C0F3406060
:102760000028F2D12CE0A069012800D1E4E5164848
:10277000001D0668A069012820D006F48001E069E8
:1027800081421BD106F03F01206A814216D147F6F3
:10279000C0703040616AB0EB811F0FD106F4403148
:1027A0000122A06AC2EB5000B1EB004F06D106F047
:1027B00070612C20005DB1EB006F01D00120BBE502
:1027C0000020B9E5000047420038024070477047DA
:1027D00030B502460B4600BF92F83C00012801D1FB
:1027E000022030BD012082F83C0000BF022082F8A8
:1027F0003D00106844681068816824F0700418680F
:10280000044310684460184D1068A8421BD010683B
:10281000B0F1804F17D0154D1068A84213D0144D59
:102820001068A8420FD0134D1068A8420BD0124D6B
:102830001068A84207D0114D1068A84203D0104D6F
:102840001068A84205D121F0800158680143106842
:102850008160012082F83D0000BF002082F83C002A
:1028600000BF00BFBDE700000000014000040040C1
:1028700000080040000C00400004014000400140FE
:102880000018004010B504460CB9012010BD94F8A2
:102890003D0028B9002084F83C00204600F026F8CE
:1028A000022084F83D00211D206805F0D9F901209F
:1028B00084F8460000BF84F83E0001213F20015506
:1028C000402001554120015500BF00BF012084F880
:1028D000420043200155442001554520015500BFC9
:1028E000012084F83D000020D0E7000038B5044600
:1028F0002068B0F1804F18D100BF00200090194827
:10290000006840F00100174908600846006800F0C0
:102910000100009000BF00BF002205211C20FFF72E
:1029200053FB1C20FFF740FB1BE00F492068884247
:1029300017D100BF002000900A48006840F0040052
:10294000084908600846006800F00400009000BFD5
:1029500000BF002205211E20FFF736FB1E20FFF7D7
:1029600023FB38BD4038024000080040014691F882
:102970003D00012801D001207047022081F83D0070
:102980000868C06840F001000B68D8601A4B0868FE
:1029900098421BD00868B0F1804F17D0174B0868D9
:1029A000984213D0164B086898420FD0154B086810
:1029B00098420BD0144B0868984207D0134B086814
:1029C000984203D0124B086898420CD1086880687E
:1029D00000F00702062A0CD00868006840F00100E9
:1029E0000B68186005E00868006840F001000B689B
:1029F00018600020C0E70000000001400004004013
:102A000000080040000C004000040140004001406C
:102A1000001800402DE9F04104460D46002700BF94
:102A200094F83C00012802D10220BDE8F081012089
:102A300084F83C0000BF022084F83D0020688668CE
:102A400026F0770626F47F4620688660286850289E
:102A500033D00CDC202850D004DC00284BD01028C8
:102A600051D149E0302849D040284CD139E0602884
:102A70002DD0702807D0B0F5805F03D0B0F5005F8F
:102A800041D10DE041E0D5E902136A68206805F004
:102A900053F92068866846F077062068866034E03F
:102AA000D5E902136A68206805F046F92068806855
:102AB00040F480402168886027E0EA6869682068FF
:102AC00005F04EF95021206805F041F91DE0EA6853
:102AD0006968206805F057F96021206805F037F92A
:102AE00013E0EA686968206805F03AF94021206837
:102AF00005F02DF909E000BF00BF00BF296820687C
:102B000005F025F901E0012700BF00BF012084F88E
:102B10003D0000BF002084F83C0000BF384684E739
:102B2000704710B5044620680069C0F34000D8B172
:102B30002068C068C0F34000B0B16FF002002168A7
:102B40000861012020772068806900F0030018B137
:102B50002046FFF7E5FF05E0204600F0ADF82046EF
:102B600000F0ABF80020207720680069C0F38000F7
:102B7000D8B12068C068C0F38000B0B16FF0040025
:102B800021680861022020772068806900F4407085
:102B900018B12046FFF7C4FF05E0204600F08CF88E
:102BA000204600F08AF80020207720680069C0F3F2
:102BB000C000D8B12068C068C0F3C000B0B16FF0E9
:102BC000080021680861042020772068C06900F0AF
:102BD000030018B12046FFF7A3FF05E0204600F0F0
:102BE0006BF8204600F069F8002020772068006923
:102BF000C0F30010D8B12068C068C0F30010B0B1B5
:102C00006FF0100021680861082020772068C069F3
:102C100000F4407018B12046FFF782FF05E020461F
:102C200000F04AF8204600F048F80020207720689D
:102C3000006900F0010058B12068C06800F0010090
:102C400030B16FF0010021680861204600F036F8CD
:102C500020680069C0F3C01058B12068C068C0F394
:102C6000C01030B16FF08000216808612046FFF786
:102C7000ADFD20680069C0F3801058B12068C068BD
:102C8000C0F3801030B16FF0400021680861204629
:102C900000F00AF920680069C0F3401058B12068BC
:102CA000C068C0F3401030B16FF0200021680861A7
:102CB0002046FFF78CFD10BD7047704770B5044685
:102CC00000BF5021EFF3118081F31188BFF34F8FC4
:102CD000BFF36F8F00BF054666492068884201D167
:102CE000FFF7B4F86448844215D1644808F0CCFA80
:102CF000634808F0C9FA6148FDF728FD5F48FDF711
:102D000069FD6048006808B90AF00CF86FF001002E
:102D10005949096808615C4884427DD15B48006874
:102D2000012848D1002059490860594AD17F907F35
:102D3000126B02EE102A564A126A01EE902A544A89
:102D4000526A01EE102A524A926A00EE902A504AC4
:102D5000D26A00EE102AFDF78BFC4E48B0F9AE00A7
:102D600000EE100AB8EEC00A9FED4B1AC0EE010A41
:102D7000B2EE021A80EE810A10EE100A444988630E
:102D80004448D0F8BE0000EE100AB8EEC00ADFEDED
:102D9000430A20EE200AF0EE000A20EE200ADFEDC2
:102DA000400A60EE200A9FED3F1A80EE810A10EE85
:102DB000100A486354E03548006870BB012033496D
:102DC0000860334A51781078D2F8122002EE102AA7
:102DD0002F4AD2F8022001EE902A2D4AD2F806207E
:102DE00001EE102A2A4AD2F80A2000EE902A284A38
:102DF000D2F80E2000EE102AFDF73AFC2548B0F973
:102E00000E0000EE100AB8EEC00A9FED231AC0EEC5
:102E1000010AB2EE021A01E027E021E080EE810A09
:102E200010EE100A1A49C1F81A001A48D0F81E000C
:102E300000EE100AB8EEC00ADFED180A20EE200AF4
:102E4000F0EE000A20EE200ADFED150A60EE200AFF
:102E50009FED141A80EE810A10EE100AC1F81600D8
:102E60006FF0010008490968086100BF85F3118807
:102E700000BF70BD00040040485000201404002032
:102E8000D40C0020180300209050002014020020D1
:102E9000E04C0020083A00200000004318B8CB4066
:102EA000DA0F4940000080467047F8B504460E46E8
:102EB000174694F83E00202836D106B10FB90120FC
:102EC000F8BD00BF94F83C00012801D10220F7E7CB
:102ED000012084F83C0000BF20633A46314620467A
:102EE00005F044FB0546EDB9206B012819D100BF60
:102EF00000200090206800680090206840680090E2
:102F000000BF00BF00BF00BF21680C3151E8001FA7
:102F100041F0100021680C3141E80002002AF3D191
:102F200000E001252846CBE70220C9E770B5054639
:102F30000E4600BF5021EFF3118081F31188BFF3DB
:102F40004F8FBFF36F8F00BF04460849286888423F
:102F500007D1284600F070F8054805F06FFC05F031
:102F60006DFE00BF84F3118800BF70BD00140140E6
:102F70009A3B002010B5044600BF00BF21680C3109
:102F800051E8001F21F4907021680C3141E80002E3
:102F9000002AF3D100BF00BF00BF2168143151E8FF
:102FA000001F21F001002168143141E80002002ACD
:102FB000F3D100BF206B01280ED100BF00BF2168F4
:102FC0000C3151E8001F21F0100021680C3141E85C
:102FD0000002002AF3D100BF2068406900F04000E1
:102FE000402820D100BF00BF2168143151E8001FE4
:102FF00021F040002168143141E80002002AF3D199
:1030000000BFA06B78B10020A16B0865A06BFEF734
:10301000AEFB40B1A06BFEF714FC202803D11020BA
:103020002064032010BD0020E085202084F83E00AD
:103030000020206300BFF5E770B504460025206836
:103040004069C0F3C01594F83D00212817D1B5B1EF
:1030500000BF00BF2168143151E8001F21F080003B
:103060002168143141E80002002AF3D100BF606BEF
:1030700010B1606BFEF77BFB204605F0D2F82068AC
:103080004069C0F3801594F83E00222817D1B5B1ED
:1030900000BF00BF2168143151E8001F21F040003B
:1030A0002168143141E80002002AF3D100BFA06B6F
:1030B00010B1A06BFEF75BFB204605F06CF800201A
:1030C00070BD000038B504460C492068884213D111
:1030D0000B480068401C0A49086000BF00200090AF
:1030E0000848006800680090064800684068009042
:1030F00000BF00BF05F0A2FD38BD00000014014074
:10310000800000202C5200202DE9F84F0446206852
:1031100005682068C668206847694FF00009CA46FC
:1031200005F00F09B9F1000F0AD105F0200038B100
:1031300006F0200020B1204605F086F8BDE8F88FA3
:10314000B9F1000F7CD007F0010018B906F49070B7
:10315000002875D005F0010030B106F4807018B178
:10316000206C40F00100206405F0040030B107F04D
:10317000010018B1206C40F00200206405F002004C
:1031800030B107F0010018B1206C40F00400206459
:1031900005F0080048B106F0200010B907F0010062
:1031A00018B1206C40F008002064206C002846D044
:1031B00005F0200028B106F0200010B1204605F0EF
:1031C00043F820684069C0F3801A206C00F00800C2
:1031D00010B9BAF1000F2DD0204604F0DCFF2068B2
:1031E000406900F04000402820D100BF00BF2168A6
:1031F000143151E8001F21F040002168143141E8EA
:103200000002002AF3D100BFA06B50B17548A16B3A
:103210000865A06BFEF701FB88B1A06B016D8847C4
:103220000DE02046FFF74EFF09E009E02046FFF7DA
:1032300049FF04E02046FFF745FF002020647DE7BA
:10324000206B012876D105F01000002872D006F01E
:1032500010000028FAD000BF00200090206800680D
:10326000009020684068009000BF00BF206840695F
:1032700000F0400040285ED1A06B006840681FFA53
:1032800080F8B8F1000F54D0A08D404551DDA4F86E
:103290002E80A06BC069B0F5807F43D000BF00BF17
:1032A00021680C3151E8001F21F4807021680C3135
:1032B00041E80002002AF3D100BF00BF00BF21682F
:1032C000143151E8001F21F001002168143141E858
:1032D0000002002AF3D100BF00BF00BF21681431F3
:1032E00051E8001F21F040002168143141E800023C
:1032F000002AF3D100BF202084F83E000020206384
:1033000000BF00BF21680C3151E8001F21F0100000
:1033100021680C3141E80002002AF3D100BFA06B04
:10332000FEF725FAA08DE28D801A81B22046FFF7C4
:10333000FDFD03E740E0A08DE18D401A1FFA80F803
:10334000E08DC0B3B8F1000F35D000BF00BF2168D9
:103350000C3151E8001F21F4907021680C3141E8D4
:103360000002002AF3D100BF00BF00BF2168143162
:1033700051E8001F21F001002168143141E80002EA
:10338000002AF3D100BF202084F83E0000202063F3
:1033900000BF00BF21680C3151E8001F21F0100070
:1033A00021680C3141E80002002AF3D100BF4146F8
:1033B0002046FFF7BBFDC1E605F0800030B106F006
:1033C000800018B1204605F039F9B7E605F0400055
:1033D00030B106F0400018B1204604F012FFADE60F
:1033E00000BFABE6FD7F000810B504460CB9012014
:1033F00010BDA06900B100E000BF94F83D0028B9FD
:10340000002084F83C00204600F028F8242084F8AE
:103410003D002068C06820F400502168C860204644
:1034200004F08EFF2068006920F490402168086154
:103430002068406920F02A00216848612068C0683F
:1034400040F400502168C86000202064202084F8E7
:103450003D0084F83E000020CAE7000010B586B0A9
:103460000446142101A8FDF78FF8FD492068884221
:1034700075D100BF00200090FA48006840F4002099
:10348000F84908600846006800F40020009000BF7A
:1034900000BF00BF00200090F2481038006840F0E4
:1034A0000400F049103908600846006800F0040084
:1034B000009000BF00BF4FF44060019002200290D6
:1034C00000200390032004900820059001A9E648FD
:1034D000FEF7AEFBE548E64908604005486000217C
:1034E000E3488160C1604FF4806101610021416166
:1034F0008161C16101624162FEF7C6FA08B1FDF760
:10350000D1FB00BFDA48A063846300BFD7483030E6
:10351000D84908604FF0006048604021D54881607C
:103520000021C1604FF4806101610021416181612E
:10353000C16101624162FEF7A7FA08B1FDF7B2FB73
:1035400000BFCC486063846300BF002205213420A3
:10355000FEF73AFD3420FEF727FDABE2FFE7C64950
:10356000206888427ED100BF00200090BD480068DE
:1035700040F48010BB4908600846006800F48010E1
:10358000009000BF00BF00BF00200090B548103879
:10359000006840F00400B34910390860084600682C
:1035A00000F00400009000BF00BF00BF00200090AA
:1035B0000846006840F0080008600846006800F00F
:1035C0000800009000BF00BF881401900220029004
:1035D00000200390032004900820059001A9A24830
:1035E000FEF726FB042001900220029000200390A9
:1035F000032004900820059001A9A048FEF718FBBD
:103600009A4830389E490860C005486000219C48AF
:103610008160C1604FF4806101610021416181617D
:10362000C16101624162FEF72FFA08B1FDF73AFB72
:1036300000BF9348A063846300BF8C4878309149F1
:1036400008604FF00060486040218E488160002192
:10365000C1604FF480610161002141618161C161FC
:10366000016200E013E04162FEF70EFA08B1FDF7D7
:1036700019FB00BF83486063846300BF00220521FB
:103680003520FEF7A1FC3520FEF78EFC12E27E49C4
:103690002068884278D100BF002000907148001D4A
:1036A000006840F010006F49091D08600846006876
:1036B00000F01000009000BF00BF00BF002000908D
:1036C00068481038006840F0010066491039086009
:1036D0000846006800F00100009000BF00BF4FF4F2
:1036E000C06001900220029000200390032004900B
:1036F0000720059001A96548FEF79AFA64486549D4
:1037000008604FF000604860002162488160C1603D
:103710004FF480610161002141618161C1610162F9
:103720004162FEF7B1F908B1FDF7BCFA00BF594894
:10373000A063846300BF56487830574908604FF053
:10374000006048604021544881600021C1604FF40E
:1037500080610161002141618161C1610162416259
:10376000FEF792F908B1FDF79DFA00BF4A48606381
:10377000846300BF002205212520FEF725FC2520BB
:10378000FEF712FC96E1FFE744492068884266D1C3
:1037900000BF002000903348006840F400303149F9
:1037A00008600846006800F40030009000BF00BFC9
:1037B00000BF002000902B481038006840F0010046
:1037C0002849103908600846006800F001000090A0
:1037D00000BF00BF0C200190022002900020039047
:1037E000032004900720059001A92848FEF720FA3D
:1037F0001E4848302A4908604FF0006048600021A8
:1038000027488160C1604FF48061016100214161FE
:103810008161C16101624162FEF736F908B1FDF7CD
:1038200041FA00BF1E48A063846300BF0F486030A8
:103830001C4908604FF000604860402119488160D1
:103840000021C1604FF4806101610021416181610B
:10385000C16101624162FEF717F928B325E034E047
:10386000004C0040403802400008024040600240E6
:1038700070520020D052002000500040000C024046
:1038800030530020905300200010014000000240FF
:1038900040640240F0530020505400200044004097
:1038A000B05400201055002001E0FDF7FBF900BFE7
:1038B00081486063846300BF002205212620FEF753
:1038C00083FB2620FEF770FBF4E07C4920688842E9
:1038D00076D100BF002000907948006840F4802035
:1038E000774908600846006800F48020009000BF17
:1038F00000BF00BF0020009071481038006840F001
:1039000008006F49103908600846006800F0080098
:10391000009000BF00BF4FF4407001900220029061
:1039200000200390032004900720059001A965481A
:10393000FEF77EF96448654908604FF00060486012
:10394000002162488160C1604FF480610161002103
:1039500041618161C16101624162FEF795F808B180
:10396000FDF7A0F900BF5948A063846300BF564823
:103970003030574908604FF000604860402154489B
:1039800081600021C1604FF48061016100214161CB
:103990008161C16101624162FEF776F808B1FDF70D
:1039A00081F900BF4A486063846300BF002205219B
:1039B0002720FEF709FB2720FEF7F6FA7AE0FFE75B
:1039C00044492068884275D100BF002000903C48DF
:1039D000001D006840F020003949091D08600846B4
:1039E000006800F02000009000BF00BF00BF002072
:1039F000009033481038006840F0400030491039DA
:103A000008600846006800F04000009000BF00BF5A
:103A10004FF4844001900220029000200390032084
:103A200004900820059001A92B48FEF701F92B48C6
:103A30002B49086080054860002129488160C160E9
:103A40004FF480610161002141618161C1610162C6
:103A50004162FEF719F808B1FDF724F900BF2048CC
:103A6000A063846300BF1D4878301E4908604FF092
:103A70002060486040211B4881600021C1604FF4F4
:103A800080610161002141618161C1610162416226
:103A9000FDF7FAFF08B1FDF705F900BF11486063B3
:103AA000846300BF002205214720FEF78DFA4720DE
:103AB000FEF77AFA06B010BD10550020004800400D
:103AC00040380240000C024028600240705500203F
:103AD000D055002000140140001802402864024024
:103AE000305600209056002070B504460D4616460C
:103AF00094F83E00202816D105B10EB9012070BD02
:103B000000BF94F83C00012801D10220F7E7012012
:103B100084F83C0000BF002020633246294620463E
:103B200004F024FDEBE70220E9E7704770472DE938
:103B3000F84F04460E46174699464FF0000A94F88F
:103B40003D0020285AD106B117B90120BDE8F88FF1
:103B500000BF94F83C00012801D10220F6E70120C3
:103B600084F83C0000BF00202064212084F83D0040
:103B7000FEF766F98246A784E784A068B0F5805F07
:103B800004D1206910B90025B04602E035464FF057
:103B9000000800BF002084F83C0000BF1BE0534633
:103BA000002280212046CDF8009004F077FD08B176
:103BB0000320CBE745B9B8F80000C0F3080021683E
:103BC000486008F1020803E02878216848606D1C0D
:103BD000E08C401EE084E08C0028E0D153460022B7
:103BE00040212046CDF8009004F058FD08B1032094
:103BF000ACE7202084F83D000020A7E70220A5E7DD
:103C0000F7B50446154694F83D00202846D10198A2
:103C100000B10DB90120FEBD00BF94F83C000128A1
:103C200001D10220F7E7012084F83C0000BF019891
:103C30002062A584E58400202064212084F83D00D2
:103C40001748616BC8631748616B08641648616B5D
:103C5000C8640020616B086501AE23681A1D3168D5
:103C60002B46606BFDF786FF6FF04000216808600F
:103C700000BF002084F83C0000BF00BF00BF2168E7
:103C8000143151E8001F41F080002168143141E8EF
:103C90000002002AF3D100BF0020BCE70220BAE7EF
:103CA0003181000889810008118000087047704741
:103CB00008B50D480068C06840F010000A4909685E
:103CC000C86000BF002000900748006800680090AE
:103CD000054800684068009000BF00BF28220349E3
:103CE0000148FFF701FF08BDA4510020502000202B
:103CF00000BFFEE7F0EE400A90ED070A90ED001AD3
:103D000020EE010A80ED010A90ED080A90ED071AF5
:103D1000D0ED051A01EE210A80ED030A90ED030AA9
:103D200090ED091A30EE010A90ED031AC1EE001A67
:103D3000C0ED061A90ED010A90ED061AD0ED011AB9
:103D400070EEE11A01EE210A80ED020A90ED060AFA
:103D5000B7EE001A31EE400A90ED031A20EE010A88
:103D600080ED040A90ED040A80ED050A90ED020A48
:103D700080ED000A90ED020A7047000010B52DEDAD
:103D80000A8BB0EE409AF0EE60AAF0EE419AA94894
:103D9000D0ED030AB0EE600AF0EE490AA64802F040
:103DA00003FDA448D0ED040AB0EE600AF0EE6A0A02
:103DB000A24802F0F9FC9F48D0ED000AB0EE600A7C
:103DC000F0EE690A9E4802F0EFFC9B4890ED050A70
:103DD00010EE101A08460AF0D5F941EC1C0BB0EEB3
:103DE0004C0AF0EE6C0A05F043FEB0EE40BAF0EE7D
:103DF00060BA9FED940B53EC102B51EC1B0B09F0A8
:103E00008FFE02D29FED918A25E08B4890ED0A0A41
:103E1000DFED8F0AB4EEE00AF1EE10FA02DD9FED5D
:103E20008C8A18E0844890ED0A0ADFED8A0AB4EE25
:103E3000E00AF1EE10FA02D29FED868A0BE07E488E
:103E400090ED0A0ABDEEC00A10EE100A00B200EEB4
:103E5000100AB8EEC08A794890ED050A10EE101AE3
:103E600008460AF08FF941EC1C0BB0EE4C0AF0EE5C
:103E70006C0A05F0FDFDB0EE40BAF0EE60BA9FEDC1
:103E8000710B53EC102B51EC1B0B09F049FE01D2C6
:103E9000DFED6E8A694890ED0A0ADFED6D0AB4EE37
:103EA000E00AF1EE10FA04DD9FED690AF0EE408AB7
:103EB0001CE0624890ED0A0ADFED660AB4EEE00A03
:103EC000F1EE10FA04D29FED630AF0EE408A0DE0A5
:103ED0005A4890ED0A0ABDEEC00A10EE100A00B270
:103EE00000EE100AB8EEC00AF0EE408A544890ED99
:103EF000050A10EE101A08460AF044F941EC1C0BB2
:103F0000B0EE4C0AF0EE6C0A05F0B2FDB0EE40BA2D
:103F1000F0EE60BA9FED4B0B53EC102B51EC1B0BEA
:103F200009F0FEFD01D29FED49AA454890ED0A0A2D
:103F3000DFED470AB4EEE00AF1EE10FA04DD9FED82
:103F4000440AB0EE40AA1CE03D4890ED0A0ADFEDBD
:103F5000410AB4EEE00AF1EE10FA04D29FED3D0AF8
:103F6000B0EE40AA0DE0364890ED0A0ABDEEC00A58
:103F700010EE100A00B200EE100AB8EEC00AB0EE61
:103F800040AA2C48D0ED000AF1EE600A9FED321AEB
:103F900060EE810AB0EE600A05F0DAFDF1EE680A23
:103FA00020EE20BA2348D0ED000AF1EE600A9FED22
:103FB0002A1A60EE810AB0EE600A05F0B1FC08EE44
:103FC00000BA264880ED00BA1A48D0ED000AF1EE9A
:103FD000600A9FED211A60EE810AB0EE600A05F0DA
:103FE0009FFCF1EE680A20EE20BA1248D0ED000ADC
:103FF000F1EE600A9FED181A60EE810AB0EE600AD9
:1040000005F0A6FD08EE40BA154880ED00BA154847
:1040100080ED00AA90ED001A1148D0ED000A0F487B
:1040200090ED000AB1EE400A07F08AFABDEC0A8B67
:1040300010BD0000A420002048400020A440002023
:1040400000410020000000000000E03F00000000F0
:1040500000803B4500803BC535FA8E3C380200208D
:104060003C020020400200202DE9F0412DED028BA2
:10407000044600250026B4F90C00B4F9B4118842B6
:104080000CDDB4F90C00B4F9B411451AB4F90C0004
:10409000A0F50050B4F9B411461A0BE0B4F90C00C5
:1040A000B4F9B411451AB4F90C0000F50050B4F994
:1040B000B411461A00EE105AB8EEC00AFCF71AFB0B
:1040C000B0EE408A00EE106AB8EEC00AFCF712FBB0
:1040D000B4EEC08AF1EE10FA01D22F4600E0374666
:1040E000A089A4F8B401D4F8B0013844C4F8B001F0
:1040F000BDEC028BBDE8F081B7EE000A80ED060A48
:104100009FED9C0A80ED070A9FED9A0A80ED080A50
:10411000B7EE000A80ED140AB2EE040A80ED280A18
:104120009FED950A80ED290AB1EE040A80ED2A0A76
:10413000B2EE020A80ED4A0A9FED900A80ED4B0A2A
:10414000B0EE000A80ED4C0AB1EE080A80ED760A66
:104150009FED8B0A80ED770AB2EE0A0A80ED780AAD
:10416000B7EE000A80ED840AB2EE040A80ED980AE8
:104170009FED810A80ED990AB1EE040A80ED9A0A5A
:10418000B2EE020A80EDBA0A9FED7C0A80EDBB0A0E
:10419000B0EE000A80EDBC0AB1EE080A80EDE60A36
:1041A0009FED770A80EDE70AB2EE0A0A80EDE80A91
:1041B000B2EE040A00F5607181ED280AB7EE000A3C
:1041C00080EDF40A9FED6C0A81ED290AB1EE040A34
:1041D00081ED2A0AB2EE020A81ED4A0A9FED670AD2
:1041E00081ED4B0AB0EE000A81ED4C0AB1EE080AEF
:1041F00000F5A86181ED060A9FED610A81ED070ACD
:10420000B2EE0A0A81ED080AB7EE000A81ED140A3F
:10421000B2EE040A81ED280A9FED570A81ED290AC2
:10422000B1EE040A81ED2A0AB2EE040A00F5E0615B
:1042300081ED060A9FED4F0A81ED070AB1EE040AEF
:1042400081ED080AB2EE040A81ED280A9FED4A0AC0
:1042500081ED290AB1EE040A81ED2A0A9FED490A8F
:1042600000F50C6181ED060A9FED420A81ED070A17
:104270009FED400A81ED080AB2EE040A81ED280A9A
:104280009FED3D0A81ED290AB1EE040A81ED2A0A6B
:10429000B2EE040A00F5286181ED060A9FED350AA9
:1042A00081ED070AB1EE040A81ED080AB2EE040AB4
:1042B00081ED280A9FED300A81ED290AB1EE040A4A
:1042C00081ED2A0AB2EE040A00F5446181ED060A86
:1042D0009FED280A81ED070AB1EE040A81ED080A74
:1042E000B2EE040A81ED280A9FED230A81ED290A26
:1042F000B1EE040A81ED2A0A8189A0F8B4110021E7
:10430000C0F8B0114FF4E6710A5AA0F874230022E5
:10431000C0F870234FF463710A5AA0F834250022C4
:10432000C0F8302540F24C510A5AA0F8F426002279
:10433000C0F8F02640F20C710A5AA0F8B428002206
:10434000C0F8B02840F6CC010A5AA0F8742A00221E
:10435000C0F8702A0A5AA0F8742A0022C0F8302C3B
:1043600040F64C410A5AA0F8F42D0022C0F8F02D76
:104370007047000000000000CDCC4C3FCDCCCC3EBF
:104380000AD7233C9A99993E10B50E480E49086009
:104390000320486000210C488160C1604FF4A021D7
:1043A00001614FF4C00141610021017641768176BF
:1043B000C17601774177FCF7D0FF08B1FCF772FCBA
:1043C00010BD000000640040F84F002010B50E48FA
:1043D0000E4908600320486000210C488160C160DC
:1043E0004FF4A02101614FF4C00141610021017629
:1043F00041768176C17601774177FCF7AEFF08B14F
:10440000FCF750FC10BD0000006800402050002068
:1044100008B500BF002000903E48006840F400103E
:104420003C4908600846006800F40010009000BF96
:1044300000BF00BF002000900846006840F48000E4
:1044400008600846006800F48000009000BF00BFCC
:10445000002205210B20FDF7B7FD0B20FDF7A4FD81
:10446000002205210C20FDF7AFFD0C20FDF79CFD7F
:10447000002205210D20FDF7A7FD0D20FDF794FD7D
:10448000002205210E20FDF79FFD0E20FDF78CFD7B
:10449000002205210F20FDF797FD0F20FDF784FD79
:1044A000002205211020FDF78FFD1020FDF77CFD77
:1044B000002205211120FDF787FD1120FDF774FD75
:1044C000002205212F20FDF77FFD2F20FDF76CFD39
:1044D000002205213920FDF777FD3920FDF764FD25
:1044E000002205213A20FDF76FFD3A20FDF75CFD23
:1044F000002205214520FDF767FD4520FDF754FD0D
:10450000002205214620FDF75FFD4620FDF74CFD0A
:1045100008BD00003038024000B5A5B0002023904F
:104520002490012123A807F05EF81F4908601C228F
:104530001E491CA8FBF7D4FF00211CA807F078F83F
:104540001B4908601C2219491C3115A8FBF7C8FF3C
:10455000002115A807F06CF8164908601C221349C1
:1045600038310EA8FBF7BCFF00210EA807F060F859
:10457000114908601C220D49543107A8FBF7B0FF10
:10458000002107A807F054F80C4908601C220749CD
:1045900070316846FBF7A4FF0021684607F048F831
:1045A0000749086025B000BD440300207CE20008F4
:1045B0003003002034030020380300203C03002097
:1045C0004003002000B587B0142102A8FBF7DCFFF0
:1045D00000BF002001909048006840F080008E49A4
:1045E00008600846006800F08000019000BF00BF2E
:1045F00000BF002001900846006840F001000860FC
:104600000846006800F00100019000BF00BF00BF35
:10461000002001900846006840F004000860084649
:10462000006800F00400019000BF00BF00BF002040
:1046300001900846006840F00200086008460068E3
:1046400000F00200019000BF00BF00BF00200190F9
:104650000846006840F0200008600846006800F046
:104660002000019000BF00BF00BF0020019008465D
:10467000006840F0100008600846006800F0100074
:10468000019000BF00BF00BF0020019008460068F5
:1046900040F0080008600846006800F0080001903B
:1046A00000BF00BF00BF002001900846006840F036
:1046B000400008600846006800F04000019000BF1C
:1046C00000BF002280215548FDF7B4FB00223021B5
:1046D0005348FDF7AFFB002203215248FDF7AAFB28
:1046E00000224FF420515048FDF7A4FB00224FF464
:1046F00080714E48FDF79EFB00224FF404514C4858
:10470000FDF798FB80200290012003900490002088
:10471000059002A94148FDF78BFA10200290012074
:10472000039004900320059002A93D48FDF780FA0C
:10473000202002900120039004900020059002A9FF
:104740003748FDF775FA012002900390049003208A
:10475000059002A93348FDF76BFA02200290012070
:10476000039004900020059002A92E48FDF760FAFE
:104770004FF42050029001200390049000200590F7
:1047800002A92948FDF754FA4FF400400290002096
:1047900003900120049002A92348FDF749FA4FF441
:1047A000807002900120039004900320059002A9DC
:1047B0001E48FDF73DFA4FF4206002900020039060
:1047C0000120049002A91948FDF732FA4FF4406025
:1047D0000290002003900120049002A91148FDF7E7
:1047E00027FA4FF480700290012003900490032078
:1047F000059002A90E48FDF71BFA4FF400500290F5
:104800000120039000200490059002A90848FDF7BC
:104810000FFA07B000BD000030380240000002402F
:104820000008024000040240001402400010024050
:104830000018024000B587B0002003900490059056
:104840000690019002904FF0804014490860532078
:10485000486000211148816040F2CF71C1600021A1
:1048600001618161FEF70EF808B1FCF71BFA4FF405
:104870008050039003A90948FEF7CCF808B1FCF773
:1048800011FA00200190029001A90448FDF7A0FF51
:1048900008B1FCF707FA07B000BD0000485000203F
:1048A00000B587B000200390049005900690019019
:1048B00002901448144908605320486000211248AF
:1048C000816040F2E731C160002101618161FDF743
:1048D000D9FF08B1FCF7E6F94FF48050039003A923
:1048E0000948FEF797F808B1FCF7DCF900200190C1
:1048F000029001A90448FDF76BFF08B1FCF7D2F95B
:1049000007B000BD000800409050002010B50B48D3
:104910000B4908604FF4E13048600021084881608D
:10492000C16001610C21416100218161C161FEF71B
:104930005BFD08B1FCF7B6F910BD0000004C00406B
:10494000D850002010B50B480B4908604FF41640B2
:104950004860002108488160C16001610C2141610B
:1049600000218161C161FEF73FFD08B1FCF79AF9B2
:1049700010BD0000005000401C51002010B50B4835
:104980000B4908604FF4E13048600021084881601D
:10499000C16001610C21416100218161C161FEF7AB
:1049A00023FD08B1FCF77EF910BD000000100140A6
:1049B0006051002010B50B480B4908604FF4E130FE
:1049C0004860002108488160C16001610C2141619B
:1049D00000218161C161FEF707FD08B1FCF762F9B2
:1049E00010BD000000440040A451002010B50B4849
:1049F0000B4908604FF41640486000210848816068
:104A0000C16001610C21416100218161C161FEF73A
:104A1000EBFC08B1FCF746F910BD0000004800406F
:104A2000E851002010B50A480A4908600A48486061
:104A3000002108488160C16001610C2141610021B1
:104A40008161C161FEF7D0FC08B1FCF72BF910BD04
:104A5000001401402C520020003E490010B50748C8
:104A60000068C06840F0100004490968C8601E2250
:104A700003490248FFF738F810BD000060510020DC
:104A80009421002010B52DED0E8BFE4800780D28E6
:104A90007DD1FC4840780A28FAD1FA48801C06F0FB
:104AA0007DFAB0EE408AF84890ED000AB4EEC80AEC
:104AB000F1EE10FA13D290ED000A38EE400AF348F6
:104AC00080ED000AF04890ED000A38EE400ADFED74
:104AD000F00A30EE600AEF4880ED000A13E0EA4881
:104AE00090ED000A38EE400AE84880ED000A9FED9C
:104AF000E80A38EE000AE448D0ED000A30EE600A19
:104B0000E44880ED000AE348006809F03BFB41EC13
:104B10001B0BB0EE4B0AF0EE6B0A04F0A9FFB0EEEF
:104B2000409AF0EE609AD948006809F02BFB41ECFE
:104B30001B0BB0EE4B0AF0EE6B0A04F099FFB0EEDF
:104B400040AAF0EE60AA53EC192B51EC1A0B09F0B5
:104B500021F903D2CF4890ED000A02E0CB4890ED56
:104B6000000ACD4880ED000AC74880ED008ACB4896
:104B700090ED0F0AC848D0ED000A30EE200AC74871
:104B800080ED0F0A90ED0F0AD0ED0E0A00E0DCE197
:104B900030EE200A80ED000ABA48123006F0FEF925
:104BA000BE4880ED0D0AB7480E3006F0F7F9BB4855
:104BB00080ED0C0ABA48006809F0E4FA41EC1E0BDB
:104BC000B0EE4E0AF0EE6E0A04F05EFFB0EE40CAA0
:104BD000F0EE60CAB14890ED0D0A10EE101A0846CA
:104BE00009F0D0FA41EC1D0B53EC1C2B08F0D4FF5C
:104BF00041EC1A0BAA48006809F0C4FA41EC1E0BFC
:104C0000B0EE4E0AF0EE6E0A04F026FEB0EE40CA98
:104C1000F0EE60CAA14890ED0C0A10EE101A08469A
:104C200009F0B0FA41EC1D0B53EC1C2B08F0B4FF5B
:104C300041EC1B0B53EC1A2B09F0BAF941EC190BA0
:104C400008F0D6FC954988619548006809F09AFA01
:104C500041EC1E0BB0EE4E0AF0EE6E0A04F0FCFDC5
:104C6000B0EE40CAF0EE60CA8C4890ED0D0A10EE2E
:104C7000101A084609F086FA41EC1D0B53EC1C2B68
:104C800008F08AFF41EC1B0B8548006809F07AFAAE
:104C900041EC1E0BB0EE4E0AF0EE6E0A04F0F4FE8C
:104CA000B0EE40CAF0EE60CA7C4890ED0C0A10EEFF
:104CB000101A084609F066FA41EC1D0B53EC1C2B48
:104CC00008F06AFF41EC190B53EC1B2B08F0C2FCF7
:104CD00041EC1A0B08F08CFC7049C861084690ED55
:104CE000060A7048D0ED000A30EE600A6E4880ED8A
:104CF000000A084690ED070A6C48D0ED000A30EE35
:104D0000600A6B4880ED000A084690ED060AD0ED77
:104D1000080A30EE200A80ED030A90ED070AD0ED74
:104D2000090A30EE200A80ED040A90ED0E0ADFED4C
:104D3000610A20EE200A10EE101A084609F022FA45
:104D400041EC1E0BB0EE4E0AF0EE6E0A04F09CFE33
:104D5000B0EE40CAF0EE60CA504890ED040A10EE82
:104D6000101A084609F00EFA41EC1D0B53EC1C2BEF
:104D700008F012FF41EC1A0B484890ED0E0ADFEDE7
:104D80004D0A20EE200A10EE101A084609F0FAF932
:104D900041EC1E0BB0EE4E0AF0EE6E0A04F05CFD24
:104DA000B0EE40CAF0EE60CA3C4890ED030A10EE47
:104DB000101A084609F0E6F941EC1D0B53EC1C2BC8
:104DC00008F0EAFE41EC1B0B53EC1A2B09F0F0F84B
:104DD00041EC190B08F00CFC30490864084690EDD2
:104DE0000E0ADFED340A20EE200A10EE101A0846F3
:104DF00009F0C8F941EC1E0BB0EE4E0AF0EE6E0A57
:104E000004F042FEB0EE40CAF0EE60CA234890EDD6
:104E1000030A10EE101A084609F0B4F941EC1D0B14
:104E200053EC1C2B08F0B8FE41EC1A0B1B4890ED1C
:104E30000E0ADFED200A20EE200A10EE101A0846B6
:104E400009F0A0F941EC1E0BB0EE4E0AF0EE6E0A2E
:104E500004F002FDB0EE40CAF0EE60CA0F4890EDDB
:104E6000040A10EE101A084609F08CF941EC1D0BEB
:104E700053EC1C2B08F090FE41EC1B0B53EC1A2B4F
:104E80001AE00000942100201400002018000020E7
:104E90000000B4431C00002020000020A4200020BB
:104EA0003C00002008010020000100200C0100202F
:104EB0000401002035FA8E3C08F0CCFB41EC190BC4
:104EC00008F096FB22494864084690ED100AB5EEBA
:104ED000C00AF1EE10FA03D090ED100A80ED030A3B
:104EE0001B4890ED110AB5EEC00AF1EE10FA03D09E
:104EF00090ED110A80ED040A164806F04FF8DFED38
:104F0000160A30EE200A124880ED050A90ED030AD9
:104F10001248D0ED000A30EE600A1148D0ED000AC8
:104F20009FED101A60EE810A80EE201A0E4880ED87
:104F3000001A074890ED030A084880ED000A9FED2B
:104F40000B0A074880ED000A00BFBDEC0E8B10BDB8
:104F5000A4200020AA210020CDCC4C3FFC00002042
:104F6000F40000206F12833AF800002000000000D7
:104F700000BFFEE72DED108B82B000BFFD4800683A
:104F800000287DD1FC48006802287AD1FB48B0F99E
:104F9000060000EE100AB8EEC00AF94880ED000ADB
:104FA000F648B0F90400404200EE100AB8EEC00A1C
:104FB000F44880ED000AF148B0F9020000EE100A52
:104FC000B8EEC00AF0EE080A20EE200AEE4880EDA6
:104FD000000A9FEDEE0AEE4880ED000A9FEDED0A13
:104FE000ED4880ED000AB3EE0E0AEC4880ED000AB1
:104FF000E348006809F0C6F841EC1C0BB0EE4C0A1F
:10500000F0EE6C0A04F034FDB0EE40AAF0EE60AAB7
:10501000DF48006809F0B6F841EC1C0BD94890ED68
:10502000000A20EE000AD648D0ED000A90ED001AE2
:1050300000EE810AF7EE000A30EE200A10EE101A98
:10504000084609F09FF8CDE900019DED000B04F042
:1050500047FEB0EE40EAF0EE60EAC948006809F0A9
:1050600091F841EC1F0B53EC1E2B08F0A7FB41EC11
:105070001D0B53EC1C2B08F08FFD41EC1B0B01E0CA
:10508000A8E337E253EC1A2B08F086FD41EC190B2C
:105090009FEDC30B53EC102B08F090FB41EC180B69
:1050A00008F0A6FAC0490860B648006809F06AF836
:1050B00041EC1B0BB0EE4B0AF0EE6B0A04F0D8FC8F
:1050C000B0EE409AF0EE609AB148006809F05AF8E4
:1050D00041EC1B0BAB4890ED000A20EE000AA848FB
:1050E000D0ED000A90ED001A00EE810AF7EE000AFA
:1050F00030EE200A10EE101A084609F043F841EC91
:105100001F0BB0EE4F0AF0EE6F0A04F0E9FDB0EEAF
:1051100040DAF0EE60DA9B48006809F033F841ECC1
:105120001E0B53EC1D2B08F049FB41EC1C0B53EC00
:105130001B2B08F031FD41EC1A0B53EC192B08F036
:105140002BFD41EC180B9FED960B53EC102B08F048
:1051500035FBCDE900019DED000B51EC100B08F083
:1051600047FA92490860904890ED000A9048D0EDC7
:10517000000A30EE600A8948D0ED000AB4EEE00A79
:10518000F1EE10FA0BDB8B4890ED000A8348D0ED6E
:10519000000A30EE200A874880ED000A22E08248AB
:1051A00090ED000A8248D0ED000A30EE600A7B489C
:1051B000D0ED000AF1EE600AB4EEE00AF1EE10FA6A
:1051C0000BD87C4890ED000A7448D0ED000A30EE10
:1051D000600A784880ED000A04E0764890ED000A05
:1051E00080ED000A714890ED000A7348D0ED000A86
:1051F00030EE600A6948D0ED000AB4EEE00AF1EE44
:1052000010FA0BDB6D4890ED000A6448D0ED000AFF
:1052100030EE200A694880ED000A22E0634890EDF4
:10522000000A6548D0ED000A30EE600A5B48D0ED18
:10523000000AF1EE600AB4EEE00AF1EE10FA0BD8C3
:105240005E4890ED000A5548D0ED000A30EE600A45
:105250005A4880ED000A04E0584890ED000A80EDBD
:10526000000A574890ED000A4748D0ED000AB4EE16
:10527000E00AF1EE10FA1AD2514890ED000A4648C1
:10528000D0ED000A30EE200A4D4880ED000A90ED86
:10529000000A3D48D0ED000AB4EEE00AF1EE10FA43
:1052A0001FDD90ED000A464880ED000A19E04448F1
:1052B00090ED000A3848D0ED000A30EE600A404810
:1052C00080ED000A90ED000A2F48D0ED000AB4EE00
:1052D000E00AF1EE10FA04D290ED000A384880EDB1
:1052E000000A344890ED000A314880ED000A334846
:1052F00090ED000A304880ED000A3248006880B91D
:105300003148006804280CDA304890ED060AB1EE06
:10531000400A80ED080A90ED0F0AB1EE400A80EDD8
:105320000E0A2B48006888B92748006804280DDA5F
:10533000264890ED070AB1EE400A80ED090A90ED8B
:105340000F0AB1EE400A80ED0E0A4FE020480068D7
:1053500078B91D480068042848DD1C4890ED060A0D
:10536000B1EE400A80ED080A90ED070AB1EE400A5E
:1053700030E03BE018030020640200200800002019
:1053800020020020240200202802002000409C452A
:10539000480200200000484250020020CC020020B9
:1053A0000000000000408F40C4020020C80200201E
:1053B000BC0200203C010020C0020020400100206F
:1053C00034020020FC02002050030020A420002012
:1053D0000003002080ED090A90ED0F0AB1EE400AAB
:1053E000DFEDFD0A30EE600A80ED0E0AFB48006832
:1053F000F0BBFB48D0ED000AF1EE600A9FEDF91A10
:1054000060EE810AB0EE600A04F0A2FBF648D0ED2F
:10541000000A20EE208AF248D0ED000AF1EE600A80
:105420009FEDF01A60EE810AB0EE600A04F078FA9F
:10543000EE48D0ED000A00EE808AED4880ED008A4B
:10544000E748D0ED000AF1EE600A9FEDE61A60EE43
:10545000810AB0EE600A04F063FAE348D0ED000A76
:1054600020EE208ADE48D0ED000AF1EE600A00E06E
:105470002DE09FEDDC1A60EE810AB0EE600A04F0C8
:1054800067FBDA48D0ED000A00EEC08AD94880ED0B
:10549000008AD64890ED000AD54880ED000AD2482F
:1054A00090ED000AD34880ED000AD34890ED000A41
:1054B000D24880ED000A90ED001ACE48D0ED000AE7
:1054C000CB4890ED000AB1EE400A06F039F8C44826
:1054D00090ED030ACA4880ED070AC14890ED040A1E
:1054E000C74880ED080ABE4890ED000AC44880ED28
:1054F000090AD0E3C34800680328FAD1C24800680B
:1055000001287BD1B64890ED030AB5EEC00AF1EE52
:1055100010FA06D190ED040AB5EEC00AF1EE10FAC9
:105520006DD0AF4890ED030AF1EE040AB4EEE00A44
:10553000F1EE10FA63D290ED040AF1EE040AB4EE33
:10554000E00AF1EE10FA5AD29FEDB03ADFEDAF2A41
:1055500042F21072114600209FEDAD2ADFEDAD1A28
:105560009FEDAD1ADFEDAD0A9FEDAC0A05F0E2F953
:105570009FEDA63ADFEDAA2A42F2107211461046BC
:105580009FEDA82ADFEDA81A9FEDA81ADFEDA10A6A
:105590009FEDA10A05F0CEF99FED9C3ADFEDA02A20
:1055A00042F21072114610469FEDA12ADFEDA11ABA
:1055B0009FEDA11ADFED9C0A9FED9C0A05F0BAF958
:1055C000B6EE003ADFED962A42F210725110104604
:1055D0009FED9A2ADFED9A1A9FED9A1ADFED950A50
:1055E0009FED950A05F0A6F99FED973ADFED8C2A1D
:1055F00041F288324FF4FA61104601E053E04BE08B
:105600009FED922ADFED921A9FED921ADFED8C0A40
:105610009FED8C0A05F08EF9F3EE042A41F27073C7
:1056200041F288329FED8C2ADFED8C1A591010461A
:105630009FED7A1ADFED8A0A9FED860A05F086FD56
:10564000F3EE042A41F288335A009FED702ADFED11
:10565000741A002140F6B8309FED701ADFED810A10
:105660009FED7C0A05F072FD00207F4908607F48AD
:105670000068401C7D4908609FED680A5B4880ED2A
:10568000000A9FED660A584880ED000A9FED630A04
:105690005A4880ED000A02E00120754908600020A8
:1056A00059490860DAE258480068022861D1714817
:1056B00090ED000ADFED700AB4EE600AF1EE10FA28
:1056C00050D190ED010ADFED6C0AB4EE600AF1EE04
:1056D00010FA47D1F3EE042A41F288334FF47A727C
:1056E0009FED4A2ADFED4E1A510000209FED4B1A24
:1056F000DFED620A9FED620A05F028FD384890ED63
:10570000041AF0EE410A90ED031AB0EE410A9FED43
:105710003F3ADFED432A41F2883200214FF4FA602C
:105720009FED582ADFED581A9FED581A05F002F93F
:105730000120574908604C4908604C480068401CEB
:105740004A4908609FED350A294880ED000A9FED1F
:10575000330A284880ED000A9FED300A274880ED83
:10576000000A02E001204249086000202649086042
:1057700074E22548006803280CD19FED460A05F025
:105780008DF83A480068401C3849086000201E49DE
:10579000086063E21C48006804281CD13E48D0ED34
:1057A0006C0AF8EEE00AB0EE600AF2EE040A05F0C8
:1057B0006EFF0B4890ED040AF0EE400AF3EE042A67
:1057C0004FF47A731A469FED242ADFED241A002144
:1057D000084663E0CCE270E00000B442880200209A
:1057E000A420002035FA8E3C400100203C0100201E
:1057F000380200203C020020340200204002002039
:10580000803D00206402002078020020CDCC4C3E78
:10581000666626C19AD9BF440000BEC200000000DF
:10582000CDCCCC3D9A9915C200606F4500D0A0C484
:10583000CDCC8AC1004885459AE9EDC466666EC143
:1058400066729745000860C5CDCCCC3E333393C219
:105850006656824500CCA1C59A99193E8FC2F53D86
:10586000CD6C1A459A59F644A0020020500300203E
:1058700018030020884D002000358247000048436F
:105880000080BB440000704200E0A6C40000FA445F
:10589000A80200200002D0C7140400201FED211A26
:1058A0009FEDFD0A05F052FCFC480068401CFB49D6
:1058B00008600020FA490860D0E1F948006805282E
:1058C00026D10020F74908604FF4FA7005F07AFEFF
:1058D000F3EE042A4FF47A731A461FED212A5FED86
:1058E000211A002108461FED331A5FED190A1FED3A
:1058F000190A05F02BFC9FEDEC0A04F0E9FFE748DC
:105900000068401CE54908600020E5490860A5E101
:10591000E3480068062825D1E448D0ED6C0AF8EE8B
:10592000E00AB0EE600AF2EE040A05F0B0FE0120D3
:10593000DC4908604FF4FA7005F044FE0120DC49B0
:1059400008604FF4967005F03DFE9FEDDA0A04F012
:10595000A5FF0020D2490860D0480068401CCF490C
:1059600008607BE1CE480068072834D1CF48D0EDED
:105970006C0AF8EEE00AB0EE600AF2EE040A05F0F6
:1059800086FE0020CA4908604FF4967005F01AFEA2
:105990000120C74908604FF4967005F013FE0020FF
:1059A000C34908604FF4967005F00CFE0120C04911
:1059B00008604FF4967005F005FE0020BC490860B1
:1059C000BD490860B5480068401CB4490860002023
:1059D000B349086042E1B2480068082830D1F3EECC
:1059E000042A41F288334FF4FA621FED782A5FED02
:1059F000741A114600209FEDB11ADFEDB10A1FEDB8
:105A00005D0A05F0A3FBF3EE042A41F288334FF45C
:105A10007A721FED822A5FED7E1A002150009FED01
:105A2000A71ADFEDA80A1FED6B0A05F08FFB9B4854
:105A30000068401C994908600020994908600DE100
:105A400097480068092837D19F4890ED010ADFED9B
:105A50009F0AB4EE600AF1EE10FA26D19C4890ED50
:105A6000041A9C48006840F29241081A00EE100A9D
:105A7000B8EEC00A31EE400AF0EE400AF3EE042A16
:105A80004FF4FA635A101FED9F2A5FEDA01A002110
:105A900008469FED8A1A9FED900A05F057FB7F4854
:105AA0000068401C7D49086002E001208B490860C5
:105AB00000207B490860D1E0794800680A280CD1B1
:105AC0009FED870A04F0EAFE74480068401C7349A1
:105AD0000860002072490860C0E0714800680B2827
