:020000040800F2
:1000000030660020290300081D500008153E000836
:1000100019500008FD0600086D710008000000007E
:10002000000000000000000000000000690200085D
:10003000E50B000800000000C50200081965000873
:100040004303000843030008430300084303000878
:100050004303000843030008430300084303000868
:10006000430300084303000843030008A9090008EC
:100070004303000843030008430300084303000848
:10008000B9090008C9090008430300084303000830
:100090000107000811070008430300084D0D000880
:1000A0004303000843030008430300084303000818
:1000B00015660008430300084303000843030008D3
:1000C00043030008430300084303000843030008F8
:1000D00043030008457100085971000843030008F4
:1000E00043030008430300084303000843030008D8
:1000F00043030008430300084303000843030008C8
:1001000043030008430300084303000843030008B7
:1001100043030008FD6A0008430300082566000841
:1001200043030008D9090008E9090008430300084F
:100130004303000843030008430300084303000887
:1001400021070008310700084303000843030008A3
:1001500043030008F9090008090A000843030008DE
:100160004303000843030008430300084303000857
:100170004303000843030008430300080000000095
:10018000430300084303000800F002F800F05CF8A5
:100190000AA090E8000C82448344AAF10107DA45E2
:1001A00001D100F051F8AFF2090EBAE80F0013F0D8
:1001B000010F18BFFB1A43F0010318471CB80000D9
:1001C0003CB800000A444FF0000C10F8013B13F05B
:1001D000070408BF10F8014B1D1108BF10F8015BA0
:1001E000641E05D010F8016B641E01F8016BF9D193
:1001F00013F0080F1EBF10F8014BAD1C0C1B09D1EA
:100200006D1E58BF01F801CBFAD505E014F8016B5B
:1002100001F8016B6D1EF9D59142D6D370470000ED
:100220000023002400250026103A28BF78C1FBD8FF
:10023000520728BF30C148BF0B6070471FB50BF095
:100240007EFA1FBD10B510BD00F0BAF91146FFF7D8
:10025000F5FF08F047FF00F0D8F903B4FFF7F2FF0D
:1002600003BC00F0DBF900002C4B19680868B0E80B
:10027000F04F80F30988BFF36F8F4FF0000080F3D9
:10028000118870470000000008480068006880F38B
:1002900008884FF0000080F3148862B661B6BFF39F
:1002A0004F8FBFF36F8F00DF00BF00BF08ED00E08E
:1002B000DFF80C00016841F470010160704700BF75
:1002C00088ED00E0EFF30980BFF36F8F134B1A68DE
:1002D0001EF0100F08BF20ED108A20E9F04F1060CB
:1002E00009B44FF0500080F31188BFF34F8FBFF374
:1002F0006F8F0AF001F94FF0000080F3118809BCFC
:1003000019680868B0E8F04F1EF0100F08BFB0EC95
:10031000108A80F30988BFF36F8F70472401002093
:10032000EFF30580704700000948804709480047FF
:10033000FEE7FEE7FEE7FEE7FEE7FEE7FEE7FEE795
:10034000FEE7FEE704480549054A064B70470000F2
:100350000166000889010008306000203066002036
:10036000306200203062002053EA020C00F0698005
:100370002DE9F04B4FF00006002B1FBFB3FA83F5B9
:1003800003FA05F424FA05F65E4012BF1643B2FAEA
:1003900082F502FA05F4C5F120051EBF22FA05FC1C
:1003A00044EA0C04203556EA044C4FEA144418BFC2
:1003B000641C4FF000084FF00009904271EB030CF1
:1003C00039D3002919BFB1FA81F701FA07F6B0FA5B
:1003D00080F700FA07F6C7F120071EBF20FA07FCD6
:1003E00046EA0C062037B6FBF4FCA7EB0507103FE6
:1003F00007F01F0BCBF120060CFA0BFB2CFA06F6CC
:1004000044BFB3460026202FA4BF5E464FF0000B2A
:100410005BEA060C08BF4FF0010B19EB0B09ABFBB5
:10042000027C48EB0608C01B06FB02CC0BFB03CC8E
:1004300071EB0C01C1E70B46024641464846BDE858
:10044000F08B13B54FF000004FF00001AFF30080C8
:10045000BDE81C407047032A40F2308010F0030CC6
:1004600000F0158011F8013BBCF1020F624498BF07
:1004700011F801CB00F8013B38BF11F8013BA2F1A4
:10048000040298BF00F801CB38BF00F8013B11F01F
:10049000030300F02580083AC0F0088051F8043BBF
:1004A000083A51F804CBA0E80810F5E7121D5CBF2C
:1004B00051F8043B40F8043BAFF30080D20724BF5F
:1004C00011F8013B11F801CB48BF11F8012B24BFF3
:1004D00000F8013B00F801CB48BF00F8012B704742
:1004E00010B5203AC0F00B80B1E81850203AA0E8CF
:1004F0001850B1E81850A0E81850BFF4F5AF5FEA03
:10050000027C24BFB1E81850A0E8185044BF18C9B5
:1005100018C0BDE810405FEA827C24BF51F8043B5C
:1005200040F8043B08BF7047D20728BF31F8023BB0
:1005300048BF11F8012B28BF20F8023B48BF00F844
:10054000012B70474FF0000200B5134694469646C3
:10055000203922BFA0E80C50A0E80C50B1F12001D6
:10056000BFF4F7AF090728BFA0E80C5048BF0CC084
:100570005DF804EB890028BF40F8042B08BF7047E2
:1005800048BF20F8022B11F0804F18BF00F8012B54
:10059000704770477047704710B500F009F8006861
:1005A00010BD10B5044600F003F8046010BD000053
:1005B00000487047CC5F002000487047CC5F0020A7
:1005C0007546FFF7F9FFAE4605006946534620F031
:1005D0000700854618B020B5FFF7B4FEBDE82040FF
:1005E0004FF000064FF000074FF000084FF0000BEF
:1005F00021F00701AC46ACE8C009ACE8C009ACE8A2
:10060000C009ACE8C0098D46704710B50446AFF389
:1006100000802046BDE81040FFF71FBE01491820AA
:10062000ABBEFEE7260002007047F0EE400AF5EE92
:10063000C00AF1EE10FA02DDB0EE600A7047B1EECA
:10064000600AFBE7F0EE400AF5EEC00AF1EE10FAA0
:1006500002DDB0EE600A7047B1EE600AFBE7000011
:100660001E4890ED030ADFED1E0A30EEC00ADFEDF2
:100670001D0A20EE200ADFED1C0A80EE201A1B481E
:1006800090ED460A31EE000ADFED190A30EE200A3D
:10069000184880ED060A114890ED030ADFED160AAE
:1006A00030EE600ADFED0F0A20EE200ADFED0E0AC1
:1006B00080EE201A0D4890ED460A30EE410ADFED3B
:1006C0000C0A30EE600A0B4880ED070A074890EDEF
:1006D000020A084880ED000A70470000745B0020A1
:1006E00000808E4300BE874700005C428C5B002088
:1006F00000007A45BC0100200000664300BFFEE711
:1007000010B5024800F046FE10BD00009016002013
:1007100010B5024800F03EFE10BD0000901600200B
:1007200010B5024800F036FE10BD0000B8160020DB
:1007300010B5024800F02EFE10BD0000B8160020D3
:1007400030B589B004464FF4007003900020059046
:1007500006908DF8200008200790B4F89201000A56
:100760008DF8000094F892018DF80100B4F82A0386
:10077000000A8DF8020094F82A038DF80300B4F8FB
:10078000C204000A8DF8040094F8C2048DF8050034
:1007900001E0681C85B202AB6A4603A9044800F078
:1007A000FEFB18B140F6FF708542F2DB09B030BDA8
:1007B000B816002010B52DED060B2DED028B9FED28
:1007C000130AB0EE408A9FED110AF0EE408A9DEDCB
:1007D000060ADDED030A30EE600AB0EE408A9DEDB8
:1007E000050ADDED020A30EE600AF0EE408AF0EE16
:1007F000680AB0EE480A07F02FF8DFED050A20EE90
:10080000200ABDEC028B06B010BD00000000000005
:10081000E12E654200B58BB00020079001200890C2
:10082000002001900290039004900590012009900F
:1008300000200A90069001A9064800F05BFC0548DC
:1008400001F089F90221034800F094FB00200BB06D
:1008500000BD00009016002000B58BB0002007906E
:1008600001200890002001900290039004900590D0
:100870000120099000200A900E20069001A9064848
:1008800000F038FC044801F066F90221024800F04B
:1008900071FB00200BB000BDB81600200FB470B57E
:1008A000DDE90B64049800F47F60B0F5007F68D147
:1008B0000698002865D1049800F00F050021681EF5
:1008C00000EB001000EB400024F830107078317815
:1008D00040EA0120691E01EB011101EB410134F8EE
:1008E0003110084301B2681E00EB001000EB40001D
:1008F00024F830100021681E00EB001000EB4000CF
:1009000004EBC0004180F078B17840EA0120691E14
:1009100001EB011101EB410104EBC10149880843DE
:1009200001B2681E00EB001000EB400004EBC000B9
:1009300041800021681E00EB001000EB400004EB3A
:10094000C00081717079317940EA0120691E01EBA4
:10095000011101EB410104EBC1018979084341B266
:10096000681E00EB001000EB400004EBC00081713A
:10097000B179681E00EB001000EB400004EBC000F2
:100980008180204603F0D1FD04F5CC7003F0CDFD4D
:1009900004F54C7003F0C9FD04F5996003F0C5FD42
:1009A00070BC5DF814FB000010B5024801F074F94A
:1009B00010BD00004019002010B5024801F06CF98C
:1009C00010BD0000601A002010B5024801F064F963
:1009D00010BD0000C01A002010B5024801F05CF9FB
:1009E00010BD0000201B002010B5024801F054F992
:1009F00010BD0000A019002010B5024801F04CF90C
:100A000010BD0000801B002010B5024801F044F921
:100A100010BD0000001A0020014608781038182385
:100A2000B0FBF3F20848805CC865032A05D9086862
:100A30006FF30900001D886503E008686FF3090083
:100A40008865886D70470000FCB7000801460020EB
:100A50008A6A8B69CBB932B1012A0DD0022A03D040
:100A6000032A10D10EE000BFCB6A03F08073B3F10C
:100A7000807F00D1012007E0CB6AB3F1C07F00D1B5
:100A8000012001E000E000BF34E08B69B3F5005FB6
:100A90001AD132B1012A07D0022A03D0032A11D178
:100AA0000AE000BF01200EE0CB6A03F08073B3F1CF
:100AB000807F00D1012006E0CB6AB3F1C07F00D176
:100AC000012000E000BF15E032B1012A05D0022A62
:100AD00004D0032A0CD103E000BF00BF012008E0CE
:100AE000CB6A03F08073B3F1807F00D1012000E076
:100AF00000BF00BF704730B50468246824F4802428
:100B000005682C60046863608468402C04D1046824
:100B1000A2600468E16003E00468A1600468E26028
:100B200030BD70B52DED068B06460D461446F0EE31
:100B3000408AB0EE608AB0EE419AF0EE619AB0EE73
:100B400042AA012C0ED1B0EE4A2AF0EE691AB0EE9C
:100B5000491AF0EE480AB0EE680A2946304607F016
:100B6000F1FD16E0022C0AD105F5807081B2F0EE9D
:100B7000480AB0EE680A304607F06CFE09E0032C24
:100B800007D105F5007081B2B0EE480A304607F093
:100B900091FEBDEC068B70BD70B506460C46154641
:100BA000012D02D10E4804800CE0022D04D104F581
:100BB00080700B49088005E0032D03D104F5007017
:100BC0000749088006480188304609F0E4F90A2000
:100BD00001F042FA02480188304609F07FF970BD01
:100BE0008C0100207047000000BF04F019FA4F4844
:100BF0000068E0B1F3EE042A44F620634FF47A7201
:100C00009FED4B2ADFED4A1A002141F270709FEDF3
:100C1000491ADFED480A9FED480A08F0EBF902E0B7
:100C2000012008F01BFB414800680028F8D13F482C
:100C3000406898B3414C94ED093AF0EE432A94EDA4
:100C4000083ABDEEC33A13EE103A94ED073ABDEE02
:100C5000C33A13EE102A94ED063AB0EE432A94ED0F
:100C6000053AF0EE431A94ED043ABDEEC33A13EEA2
:100C7000101A94ED033ABDEEC33A13EE100A94ED48
:100C8000023AB0EE431A94ED013AF0EE430A94EDC5
:100C9000003AB0EE430A08F0ADF903E006E00120A7
:100CA00008F0DCFA214840680028F8D11F48806825
:100CB00020B31E4890ED080A214880ED000A1B4829
:100CC00090ED090A1E4880ED010A184890ED0A0AC5
:100CD0001B4880ED020A1B4890ED000A1A4880ED7F
:100CE000090A184890ED030A174880ED070A1548CD
:100CF00090ED040A144880ED080A11E00B48806862
:100D000070B91148D0ED081AB0EE611AD0ED071A8B
:100D1000F0EE610AD0ED091AB0EE610A03F000F9B5
:100D200004F024FF012008F099FA5EE7E01B0020A0
:100D3000CDCC4C3E0000000000C041C57800002032
:100D400014100020E01700202C10002010B5802087
:100D500001F008FA4FF4807001F004FA4FF40070CB
:100D600001F000FA10BD72B600BFFEE710B5002218
:100D700001B909E0012901D10A0205E0022901D1E6
:100D80000A0201E04FF440720E4B1B6823F44073DB
:100D90000C4C236023461B681343236023461B68C7
:100DA00023F0F803236023461B68022444EAC004AE
:100DB0002343044C236023461B6843F480332360A1
:100DC00010BD0000103C0240074A126822F4407235
:100DD000054B1A601A4612681A601A46126842F0E9
:100DE00001021A6001707047103C024010B50D49B5
:100DF000096821F440710B4C21602146096841F4D7
:100E0000407121602146096841F0010121600260C2
:100E100000BF00BF00BFBFF36F8F00BF00BF00BFA8
:100E2000436010BD103C0240084A126822F4407230
:100E3000064B1A601A46126842F480721A601A460B
:100E4000126842F001021A6001807047103C0240B3
:100E5000084A126822F44072064B1A601A46126859
:100E600042F400721A601A46126842F001021A60D7
:100E700001607047103C02402348006800F01000F9
:100E800040B12248C06940F010002049C8611020DC
:100E90001D4908601C48006800F0200040B11B4854
:100EA000C06940F008001949C8612020164908604F
:100EB0001548006800F0400040B11448C06940F097
:100EC00004001249C86140200F4908600E480068BC
:100ED00000F0800040B10D48C06940F002000B49AD
:100EE000C8618020084908600748006800F00200D7
:100EF00040B10648C06940F020000449C8610220A2
:100F000001490860704700000C3C0240481D002069
:100F100070B50446002500201449C86101F036FA76
:100F2000054609E0601C38B124B101F02FFA401BDE
:100F3000A04201D9032070BD0D48006800F4803044
:100F40000028EFD10A48006800F0010010B101202C
:100F5000074908600648006800F0F20018B1FFF782
:100F60008BFF0120E7E70020E5E70000481D002097
:100F70000C3C024010B5024692F82030012B01D003
:100F8000022B06D110684069084314686061002094
:100F900010BD506A40F4802050620120F8E7F0B59F
:100FA00004460D461E4694F8207020688368A868A1
:100FB00000B900E000BF012F01D0022F7CD103F067
:100FC000806030B903F0006018B903F08050002849
:100FD00073D0C3F30161022905D9606A40F40000AF
:100FE00060620120F0BD012088403060A86860B9CF
:100FF000B5F800C0E86840EA4C5C206800F5C070B5
:1010000000EB0110C0F800C00FE0D5E901C040EAD4
:10101000CC00D5F80CC040EA0C00D4F800C00CF5A8
:10102000C07C0CEB011CCCF80000D5F810C0206887
:1010300000F5C07000EB0110C0F804C0287D012845
:101040000ED1206800F5C07000EB0110406840F43C
:10105000807C206800F5C07000EB0110C0F804C06F
:10106000D079000692F806C040EA0C4092F805C01C
:1010700040EA0C2C10794CEA000C206800F5C07096
:1010800000EB0110C0F80CC0D078000692F802C046
:1010900040EA0C4092F801C040EA0C2092F800C0EF
:1010A00040EA0C00D4F800C00CF5C07C0CEB011C2D
:1010B000CCF80800206801E016E00FE000F5C070F1
:1010C00000EB0110006840F0010C206800F5C070D2
:1010D00000EB0110C0F800C0002083E7606A40F414
:1010E0000010606201207DE7606A40F48020606249
:1010F000012077E7F0B504460A46216894F82050AD
:10110000012D01D0022D7ED1424901F50071086800
:1011100040F001000860086820F47C50086008680E
:10112000566A40EA06200860107D00F01F06012084
:1011300000FA06F3C8699843C861A1F50071D06947
:10114000C8B9D1F80C029843C1F80C02908880B25B
:10115000968940EA064601F51070576940F83760F5
:10116000108880B2168940EA064601F5107057696A
:1011700000EBC7004660D069012819D1D1F80C02F4
:101180001843C1F80C02908880B2168840EA0646DF
:1011900001F51070576940F83760908980B2168960
:1011A00040EA064601F51070576900EBC70046603B
:1011B000906928B9D1F804029843C1F8040204E008
:1011C000D1F804021843C1F80402106928B9D1F813
:1011D00014029843C1F8140204E0D1F81402184331
:1011E000C1F81402106A012804D1D1F81C02184376
:1011F000C1F81C02D1F8000220F00100C1F8000281
:101200000020F0BDFFE7606A40F4802060620120AA
:10121000F7E7000000640040704770B5044694F89A
:101220002050012D01D0022D7DD151B92068C06818
:1012300000F0030080B9606A40F400106062012091
:1012400070BD2068006900F0030028B9606A40F4AE
:10125000001060620120F3E7206800F5D87000EB11
:101260000110006800F004009060906840B92068A8
:1012700000F5D87000EB01100068400D106007E029
:10128000206800F5D87000EB01100068C0085060BD
:10129000206800F5D87000EB0110006800F0020033
:1012A000D060206800F5D87000EB0110406800F0B5
:1012B0000F001061206800F5D87000EB0110406845
:1012C00000F47F40000A9061206800F5D87000EBC0
:1012D00001104068000C5061206800F5D87000EBE8
:1012E000011080681870206800F5D87000EB0110BC
:1012F000806800F47F40000A5870206800F5D870BC
:1013000000EB0110806800F47F00000C98702068EA
:1013100000F5D87000EB01108068000ED8702068CE
:1013200000F5D87000E02FE000EB0110C0681871E4
:10133000206800F5D87000EB0110C06800F47F4011
:10134000000A5871206800F5D87000EB0110C068E1
:1013500000F47F00000C9871206800F5D87000EB55
:101360000110C068000ED87131B92068C06840F023
:1013700020002668F06005E02068006940F0200049
:101380002668306100205BE7606A40F4802060627C
:10139000012055E72DE9F05F0446002520684669E5
:1013A0002068D0F80490206887682068D0F80CA0E6
:1013B0002068D0F810B02068D0F8188006F001003E
:1013C000002855D007F00100C0B1012021688860D5
:1013D00007F0020018B1204600F0EDFB0EE007F028
:1013E000040010B145F4006508E007F0080010B1F2
:1013F00045F4805502E0204600F0DCFB07F48070E5
:10140000C8B14FF480702168886007F4007018B18B
:10141000204600F0D2FB0EE007F4806010B145F4E6
:10142000005508E007F4006010B145F4804502E083
:10143000204600F0C1FB07F48030C8B14FF4803083
:101440002168886007F4003018B1204600F0B7FB2F
:101450000EE007F4802010B145F4004508E007F4E1
:10146000002010B145F4803502E0204600F0A6FBD4
:1014700006F0080038B10AF0100020B145F40075FC
:1014800010202168C86006F0040040B10AF008008E
:1014900028B108202168C860204600F01DFA06F037
:1014A000020038B12068C06800F0030010B1204687
:1014B00000F014FA06F0400038B10BF0100020B133
:1014C00045F4806510202168086106F0200040B1D5
:1014D0000BF0080028B1082021680861204600F0C0
:1014E00037FB06F0100038B12068006900F00300F7
:1014F00010B1204600F02DFB06F4003040B109F099
:10150000100028B1102021684860204600F022FB1E
:1015100006F4803040B109F0080028B108202168A5
:101520004860204600F04CFB06F4004088B309F008
:10153000040078B306F4807020B108F0010008B10F
:1015400045F0010506F4007020B108F0020008B172
:1015500045F0020506F4806020B108F0040008B1EF
:1015600045F0040506F40060A0B108F0700088B1F1
:1015700008F07000402817D006DC10280BD0202877
:101580000CD0302819D10CE0502810D0602814D18C
:1015900010E01DE019E045F008050FE045F01005EA
:1015A0000CE045F0200509E045F0400506E045F077
:1015B000800503E045F4807500E000BF00BF2068AF
:1015C000806920F0700021688861042021684860EB
:1015D0002DB1606A284360622046FFF71DFEBDE81A
:1015E000F09F70B504460CB9012070BD94F820003E
:1015F00010B9204600F0B0F82068006840F0010003
:101600002168086000F0C2FE05460DE000F0BEFE55
:10161000401B0A2808D9606A40F400306062052047
:1016200084F820000120E0E72068406800F0010015
:101630000028EBD02068006820F0020021680860D4
:1016400000F0A4FE05460DE000F0A0FE401B0A28B5
:1016500008D9606A40F400306062052084F82000F8
:101660000120C2E72068406800F002000028EBD1AA
:10167000207E012806D12068006840F080002168A3
:10168000086005E02068006820F08000216808609C
:10169000607E012806D12068006840F04000216883
:1016A000086005E02068006820F0400021680860BC
:1016B000A07E012806D12068006840F02000216843
:1016C000086005E02068006820F0200021680860BC
:1016D000E07E012806D12068006820F01000216813
:1016E000086005E02068006840F01000216808608C
:1016F000207F012806D12068006840F0080021689A
:10170000086005E02068006820F008002168086093
:10171000607F012806D12068006840F0040021683D
:10172000086005E02068006820F004002168086077
:10173000D4E90201084321690843616908436168EB
:10174000491E08432168C86100206062012084F8B6
:101750002000002049E7000010B586B0044614219F
:1017600001A8FEF7EFFE5749206888424AD1564843
:101770000068401C544908600846006801280FD1E1
:1017800000BF002000905148006840F000704F49B1
:1017900008600846006800F00070009000BF00BFBD
:1017A00000BF0020009049481038006840F0020057
:1017B0004649103908600846006800F002000090B1
:1017C00000BF00BF4FF44070019002200290002043
:1017D0000390032004900920059001A93C4800F0E3
:1017E000CFFC00220521142000F080FE142000F020
:1017F0006DFE00220521152000F078FE152000F076
:1018000065FE5CE033492068884258D100BF002063
:1018100000902E48006840F080602C49086008461F
:10182000006800F08060009000BF00BF264800689C
:10183000401C254908600846006801280FD100BFF8
:10184000002000902148006840F000701F490860A7
:101850000846006800F00070009000BF00BF00BFA5
:101860000020009019481038006840F00200174925
:10187000103908600846006800F00200009000BFC0
:1018800000BF6020019002200290002003900320FE
:1018900004900920059001A90D4800F071FC002278
:1018A0000521402000F022FE402000F00FFE002223
:1018B0000521412000F01AFE412000F007FE06B08D
:1018C00010BD000000640040CC0000204038024001
:1018D00000040240006800407047000070B58EB000
:1018E00004468E48844217D105AB07AA0021204642
:1018F000FFF793FC05465DB9894805A9CDE90310BA
:101900000BA807C88DE8070007A80FC8FEF7C6FF99
:1019100002212046FFF72EFB824920680968884291
:1019200010D105AB07AA00212046FFF776FC00285E
:10193000F6D1079800F47F4028B97B4A05A907A88B
:1019400002F06AFAE7E0079800F47F60B0F5007FE4
:1019500005D1764A05A907A802F0A0FCDBE00798AC
:1019600030B1012863D0A0F2011000287ED1CAE076
:101970009DF8140000F00F006D49086008460668E5
:10198000032E53D19DF81400001148609DF81600F5
:101990009DF8151040EA0120654988609DF8170000
:1019A00000019DF8181040EA21106149C8609DF8B7
:1019B00019009DF8181001F00F0140EA01205C4960
:1019C000086188681021DFED5B0A9FED5B0A08F073
:1019D000E7FB574880ED070A0146C8680C21DFED98
:1019E000570A9FED570A08F0DBFB514880ED080AC3
:1019F000014608690C21F2EE040ABAEE040A08F066
:101A0000CFFB4B4880ED090A9DF81A0000EE100A42
:101A1000B8EE400A464880ED0C0A9DF81B0000EE27
:101A2000100AB8EE400A424880ED0D0A72E09DF8B7
:101A300015009DF8141040EA0120424988609DF885
:101A4000160000019DF8171040EA21103D49C860BA
:101A50009DF818009DF8171001F00F0140EA0120D1
:101A6000384948619DF81900000100E051E09DF8F7
:101A70001A1040EA2110334988619DF81B009DF837
:101A80001A1001F00F0140EA01202E490861886810
:101A90001021DFED280A9FED280A08F081FB294874
:101AA00080ED070A0146C8680C21DFED240A9FED8E
:101AB000240A08F075FB234880ED080A01464869AE
:101AC0000C21DFED210A9FED210A08F069FB1D487A
:101AD00080ED0A0A014688690C21F1EE040A9FEDA7
:101AE0001B0A08F05DFB174880ED0B0A01460869E8
:101AF0000C21F2EE040ABAEE040A08F051FB114878
:101B000080ED090A06E00F480599C1610699016256
:101B100000E000BF00BF0EB070BD0000B81600208E
:101B2000F001002090160020745B00208C5B0020E8
:101B3000345B002000409C4500409CC50000C8422A
:101B40000000C8C2F45A00200000FA430000000060
:101B500070477047704770B5044694F8200001281C
:101B600022D1022084F820002068006820F00100C3
:101B70002168086000F00AFC05460DE000F006FC54
:101B8000401B0A2808D9606A40F4003060620520D2
:101B900084F82000012070BD2068406800F001003A
:101BA0000028EBD16062F6E7606A40F400206062D2
:101BB0000120F0E7704770477047704770477047E3
:101BC000704770B50446A56D00F0E0FB064694F83A
:101BD0003500022808D08020606500BF002084F80E
:101BE000340000BF012070BD2068006820F016009E
:101BF000216808602068406920F080002168486101
:101C0000206C08B9A06C28B12068006820F008009A
:101C1000216808602068006820F0010021680860E1
:101C200010E000F0B3FB801B05280BD92020606575
:101C3000032084F8350000BF002084F8340000BF82
:101C40000320D0E72068006800F001000028E8D1F8
:101C500094F85C103F208840A860012084F835008B
:101C600000BF002084F8340000BF00BFBBE701467E
:101C700091F83500022803D0802048650120704784
:101C8000052081F835000868006820F001000A6826
:101C900010600020F3E70000F8B504460020009033
:101CA0008C4800684FF41651B0FBF1F7A56D2E6813
:101CB00094F85C1008208840304098B12068006893
:101CC00000F0040070B12068006820F00400216872
:101CD000086094F85C1008208840A860606D40F0AF
:101CE0000100606594F85C1001208840304068B1C4
:101CF0002068406900F0800040B194F85C10012039
:101D00008840A860606D40F00200606594F85C1047
:101D100004208840304068B12068006800F002006C
:101D200040B194F85C1004208840A860606D40F0D9
:101D30000400606594F85C1010208840304078B34F
:101D40002068006800F0080050B394F85C10102080
:101D50008840A8602068006800F4802080B1206876
:101D6000006800F4002028B9206CC8B12046216C1E
:101D7000884715E0A06C98B12046A16C88470FE019
:101D80002068006800F4807028B92068006820F09E
:101D9000080021680860206C10B12046216C88473B
:101DA00094F85C10202088403040002865D02068DE
:101DB000006800F0100000285FD094F85C1020202C
:101DC0008840A86094F83500052828D1206800686C
:101DD00020F01600216808602068406920F080002B
:101DE00021684861206C08B9A06C28B1206800689F
:101DF00020F008002168086094F85C103F208840BB
:101E0000A860012084F8350000BF002084F8340069
:101E100000BF206D10B12046216D8847F8BD2068B5
:101E2000006800F4802080B12068006800F4002081
:101E300028B9606C10B12046616C88471DE0E06BEA
:101E4000D8B12046E16B884717E02068006800F4AD
:101E5000807068B92068006820F010002168086070
:101E6000012084F8350000BF002084F8340000BF52
:101E7000E06B10B12046E16B8847606D38B3606D50
:101E800000F00100F0B1052084F8350020680068FA
:101E900020F001002168086000BF0098401C0090FD
:101EA000B84200D905E02068006800F00100002871
:101EB000F3D100BF012084F8350000BF002084F872
:101EC000340000BFE06C10B12046E16C884700BFD1
:101ED000A4E70000200100202DE9F0410446002580
:101EE00000F054FA074614B90120BDE8F081606A99
:101EF00000B100BF022084F8350000BF002084F844
:101F0000340000BF2068006820F0010021680860EC
:101F10000AE000F03BFAC01B052805D920206065C7
:101F2000032084F83500E0E72068006800F0010035
:101F30000028EED12068056821480540D4E9010158
:101F40000843E16808432169084361690843A169BE
:101F50000843E1690843216A08430543606A04288D
:101F600003D1D4E90B0108430543206805602068CC
:101F7000456925F00705606A0543606A04280DD1AC
:101F8000A06A0543E06A48B12046FEF75FFD28B12C
:101F900040206065012084F83500A6E7206845618F
:101FA0002046FEF739FD064694F85C103F20884035
:101FB000B06000206065012084F83500002094E7BF
:101FC0003F8010F02DE9F04704460D4616461F46A7
:101FD0004FF00008D4F8589000BF94F8340001285E
:101FE00002D10220BDE8F087012084F8340000BF50
:101FF00094F83500012825D1022084F8350000200E
:1020000060653B46324629462046FEF774FD94F84B
:102010005C103F208840C9F808002068006840F044
:10202000160021680860206C28B12068006840F024
:102030000800216808602068006840F001002168FD
:10204000086006E000BF002084F8340000BF4FF0B5
:1020500002084046C6E7000070B5044600F096F955
:1020600006462546681C10B104480078054400BFA8
:1020700000F08CF9801BA842FAD370BD1C0100202F
:102080000348006840F000400149086000207047A4
:10209000103C02402DE9F04106460F4614461D460D
:1020A0004FF0010800BF1F48007E012802D1022026
:1020B000BDE8F08101201B49087600BF4CF250308A
:1020C000FEF726FF8046B8F1000F23D126B9E1B212
:1020D0003846FEF779FE12E0012E04D1A1B238464F
:1020E000FEF7A2FE0BE0022E04D121463846FEF791
:1020F000AFFE04E022462B463846FEF777FE4CF250
:102100005030FEF705FF80460748006820F00100C8
:102110000549086000BF00200249087600BF40461C
:10212000C6E70000481D0020103C0240002009497D
:10213000096801F0004159B10749064A0C3A11609B
:10214000064911600349096801F0004101B101200D
:1021500070470000103C024023016745AB89EFCD7A
:102160007047000010B5044604480068204020B1C4
:10217000024804602046FFF7F3FF10BD143C014005
:10218000F8B502460B460025002400200021D5E0CA
:10219000012606FA01F51E6806EA0504AC4274D170
:1021A0001E7906F00306012E04D01E7906F0030600
:1021B000022E13D190684F000326BE40B0434F005B
:1021C000DE68BE4030439060506801268E40B043C8
:1021D0001E79C6F300168E40304350601E7906F01B
:1021E0000306032E09D0D0684F000326BE40B0433B
:1021F0004F009E68BE403043D0601E7906F0030653
:10220000022E13D1CF0802F1200656F827004E0700
:10221000F70E0F26BE40B0434F07FF0E1E69BE40AB
:102220003043CF0802F1200646F8270010684F001F
:102230000326BE40B0431E7906F003064F00BE40A1
:10224000304310605E6806F44036002E75D000BF43
:10225000002600963B4E366846F48046394F3E6075
:102260003E46366806F48046009600BF00BF364EF4
:102270008F0856F827008E07370F0F26BE40B04351
:10228000324EB24202D1002624E056E0304EB24235
:1022900001D101261EE02F4EB24201D1022619E0E3
:1022A0002D4EB24201D1032614E02C4EB24201D190
:1022B00004260FE02A4EB24201D105260AE0294E3B
:1022C000B24201D1062605E0274EB24201D10726CF
:1022D00000E008268F073F0FBE4030431A4E8F089C
:1022E00046F82700214E3068A0435E6806F4803629
:1022F00006B120431D4E3060361D3068A0435E6835
:1023000006F4003606B12043184E361D3060361DE7
:102310003068A0435E6806F4801606B12043134E71
:1023200008363060361D3068A0435E6806F400163B
:1023300006B120430D4E0C363060491C1029FFF4C5
:1023400027AFF8BD44380240083801400000024081
:102350000004024000080240000C0240001002404D
:102360000014024000180240001C0240003C0140E2
:10237000024613690B400BB1012000E000207047BA
:102380000AB1816101E00B04836170470148006874
:1023900070470000140100200348006803490978D1
:1023A0000844014908607047140100201C01002006
:1023B00010B50D48006840F400700B4908600846ED
:1023C000006840F4806008600846006840F480704F
:1023D0000860032000F0C8F80F2000F007F800F0B4
:1023E0004BF8002010BD0000003C024070B588B0E2
:1023F00004460025002600222146372000F076F80A
:10240000372000F063F800BF0020019016480068F4
:1024100040F02000144908600846006800F02000E1
:10242000019000BF00BF02A903A800F073F900F0FB
:1024300099F945000D48B5FBF0F0461E0C480D49D2
:10244000086040F2E7310B48C1604660002101613D
:10245000816000F0A9FC20B9064800F027FD08B013
:1024600070BD0120FBE700004038024040420F00F1
:1024700000140040001D002008B500BF002000909F
:102480001148006840F480400F4908600846006821
:1024900000F48040009000BF00BF00BF002000900B
:1024A000081F006840F08050091F08600846006857
:1024B00000F08050009000BF00BF00220F21901E4E
:1024C00000F014F808BD00004438024001460846F8
:1024D000002809DB00F01F0301229A4043099B00FA
:1024E00003F1E023C3F8002100BF70472DE9F05F3E
:1024F00080460D461646002704F0E0FF07463946A1
:102500002A46334601F00700C0F1070ABAF1040F6A
:1025100002D94FF0040A01E0C0F1070AD14600F1E8
:10252000040ABAF1070F02D24FF0000A01E0A0F14D
:10253000030AD4464FF0010A0AFA09FAAAF1010A7D
:102540000AEA020A0AFA0CFA4FF0010B0BFA0CFB2A
:10255000ABF1010B0BEA030B4AEA0B0421464046A0
:1025600004F0B4FFBDE8F09F00BF00F00702064B87
:1025700019684FF6FF031940044B0B4343EA02214D
:10258000014B196000BF70470CED00E00000FA0538
:1025900070B504460D460CB9012070BD584800685E
:1025A00000F00700A84209D255490D70084600689E
:1025B00000F00700A84201D00120EEE7207800F0EB
:1025C000020002281DD1207800F00400042805D163
:1025D0004C48006840F4E0504A490860207800F018
:1025E0000800082805D14748006840F46040454984
:1025F00008604448006820F0F000A16808434149A1
:102600000860207800F00100A8B36068012807D1B5
:102610003C4808380068C0F34040B8B90120BCE726
:102620006068022802D06068032807D1354808385E
:102630000068C0F3406048B90120AEE7314808386F
:102640000068C0F3400008B90120A6E72D480068E3
:1026500020F00300616808432A490860FFF796FEEE
:10266000064609E0FFF792FE801B41F2883188425E
:1026700002D9032091E707E02248006800F00C002F
:102680006168B0EB810FEDD11D48006800F00700D4
:10269000A84209D91A490D700846006800F00700E1
:1026A000A84201D0012078E7207800F00400042837
:1026B00007D11448006820F4E050E168084311494C
:1026C0000860207800F00800082808D10D4800684C
:1026D00020F46040216940EAC1000A49086000F026
:1026E00061F808490968C1F30311074A515CC84001
:1026F0000649086006480068FFF778FE00204CE7AE
:10270000003C02400838024004B8000820010020C4
:10271000180100200F2202600D4A126802F0030225
:1027200042600B4A126802F0F0028260084A1268A6
:1027300002F4E052C260064A126802F46042D20813
:102740000261044A126802F007020A607047000042
:1027500008380240003C0240014800687047000011
:102760002001002000B5FFF7F7FF04490968C1F315
:102770008221034A515CC84000BD00000838024075
:1027800014B8000800B5FFF7E7FF04490968C1F372
:102790004231034A515CC84000BD00000838024085
:1027A00014B800082DE9F047002400250026A146B2
:1027B0002548006800F00C0020B1042805D0082846
:1027C0003AD105E0DFF8849039E0DFF8849036E014
:1027D0001D48001F006800F03F041B48001F0068F0
:1027E00000F4800078B11A481749091F0968C1F33D
:1027F0008811A0FB01700146224600233846FDF7F0
:10280000B3FD05460EE011480F49091F0968C1F3E1
:102810008811A0FB01700146224600233846FDF7CF
:10282000A3FD05460848001F0068C0F30140401C96
:102830004600B5FBF6F902E0DFF8109000BF00BFDC
:102840004846BDE8F0870000083802400024F40044
:1028500000127A00F8B504460CB90120F8BD2078C2
:1028600000F00100002874D0F948006800F00C0066
:1028700004280DD0F648006800F00C00082813D199
:10288000F348001F006800F48000B0F5800F0BD102
:10289000EF4808380068C0F34040002859D060680D
:1028A000002856D10120D9E700BF6068B0F5803F0D
:1028B00008D1E7480838006840F48030E449083916
:1028C00008601EE06068B0F5A02F0DD1E048083820
:1028D000006840F48020DE49083908600846006836
:1028E00040F4803008600CE0D9480838006820F4D3
:1028F0008030D749083908600846006820F48020F5
:10290000086000BF606890B1FFF740FD054606E033
:10291000FFF73CFD401B642801D903209EE7CC480B
:1029200008380068C0F340400028F1D011E0FFF7FC
:102930002DFD054606E0FFF729FD401B642801D95F
:1029400003208BE7C24808380068C0F340400028E5
:10295000F1D1207800F0020002285FD1BC48006865
:1029600000F00C0058B1BA48006800F00C000828CC
:102970001CD1B748001F006800F48000B0B9B4480B
:1029800008380068C0F3400020B1E068012801D099
:10299000012063E7AE480838006820F0F80021699C
:1029A00040EAC100AA490839086037E0E06800B38E
:1029B0000120A8490860FFF7E9FC054606E0FFF79B
:1029C000E5FC401B022801D9032047E7A04808384E
:1029D0000068C0F340000028F1D09D480838006826
:1029E00020F0F800216940EAC100994908390860DF
:1029F00014E0002097490860FFF7C8FC054606E090
:102A0000FFF7C4FC401B022801D9032026E79048A9
:102A100008380068C0F340000028F1D1207800F0A9
:102A2000080008282CD16069A8B101208A490860F3
:102A3000FFF7ACFC054606E0FFF7A8FC401B0228A8
:102A400001D903200AE782486C300068C0F34000D7
:102A50000028F1D014E000207F490860FFF796FCC1
:102A6000054606E0FFF792FC401B022801D903202F
:102A7000F4E677486C300068C0F340000028F1D1DC
:102A8000207800F00400042870D100277048383006
:102A9000006800F0805090B900BF002000906C48A2
:102AA0003830006840F08050694938310860084685
:102AB000006800F08050009000BF00BF0127674809
:102AC000006800F48070B0B96448006840F4807019
:102AD00062490860FFF75AFC054606E0FFF756FC1E
:102AE000401B022801D90320B8E65C48006800F4C6
:102AF00080700028F2D000BFA068012808D1544897
:102B00006830006840F001005149683108601DE0FC
:102B1000A06805280DD14E486830006840F00400D8
:102B20004B49683108600846006840F001000860C1
:102B30000CE047486830006820F0010044496831E3
:102B400008600846006820F00400086000BFA06824
:102B5000A8B1FFF71BFC054609E0FFF717FC401B77
:102B600041F28831884202D9032077E626E03848CE
:102B700068300068C0F340000028EED013E0FFF793
:102B800005FC054608E0FFF701FC401B41F28831D7
:102B9000884201D9032061E62D4868300068C0F3FF
:102BA00040000028EFD1012F07D1294838300068B4
:102BB00020F0805026493831086000BFA069002805
:102BC00045D02348006800F00C0008285DD0A069BB
:102BD000022845D100201F490866FFF7D7FB0546AC
:102BE00006E0FFF7D3FB401B022801D9032035E69E
:102BF000174808380068C0F340600028F1D1D4E9D4
:102C000007010843616A40EA81110122A06AC2EB10
:102C1000500041EA00412C20005D41EA00600C496F
:102C2000091F086001200B490866FFF7AFFB054646
:102C300006E0FFF7ABFB401B022801D903200DE69D
:102C4000034808380068C0F340600028F1D049E02C
:102C50000838024000004742800E474200700040A2
:102C6000002021490866FFF791FB054606E0FFF7C3
:102C70008DFB401B022801D90320EFE51B480068AB
:102C8000C0F340600028F2D12CE0A069012800D1F7
:102C9000E4E51648001D0668A069012820D006F466
:102CA0008001E06981421BD106F03F01206A814228
:102CB00016D147F6C0703040616AB0EB811F0FD16A
:102CC00006F440310122A06AC2EB5000B1EB004F84
:102CD00006D106F070612C20005DB1EB006F01D0D1
:102CE0000120BBE50020B9E5000047420038024062
:102CF0007047704730B502460B4600BF92F83C0063
:102D0000012801D1022030BD012082F83C0000BF23
:102D1000022082F83D00106844681068816824F041
:102D200070041868044310684460184D1068A84285
:102D30001BD01068B0F1804F17D0154D1068A84215
:102D400013D0144D1068A8420FD0134D1068A8423C
:102D50000BD0124D1068A84207D0114D1068A84240
:102D600003D0104D1068A84205D121F080015868A9
:102D7000014310688160012082F83D0000BF0020FF
:102D800082F83C0000BF00BFBDE70000000001402A
:102D90000004004000080040000C00400004014016
:102DA000004001400018004010B504460CB9012055
:102DB00010BD94F83D0028B9002084F83C0020465E
:102DC00000F026F8022084F83D00211D206803F061
:102DD00031FC012084F8460000BF84F83E00012148
:102DE0003F200155402001554120015500BF00BF43
:102DF000012084F84200432001554420015545201C
:102E0000015500BF012084F83D000020D0E70000FC
:102E100038B504462068B0F1804F18D100BF0020BB
:102E200000901F48006840F001001D4908600846F6
:102E3000006800F00100009000BF00BF00220521E3
:102E40001C20FFF753FB1C20FFF740FB27E0154930
:102E5000206888420FD100BF002000901048006811
:102E600040F002000E4908600846006800F00200C9
:102E7000009000BF13E00C49206888420FD100BFCA
:102E8000002000900648006840F0100004490860E7
:102E90000846006800F01000009000BF00BF38BD79
:102EA000403802400004004000100040014691F804
:102EB0003D00012801D001207047022081F83D002B
:102EC0000868C06840F001000B68D8601A4B0868B9
:102ED00098421BD00868B0F1804F17D0174B086894
:102EE000984213D0164B086898420FD0154B0868CB
:102EF00098420BD0144B0868984207D0134B0868CF
:102F0000984203D0124B086898420CD10868806838
:102F100000F00702062A0CD00868006840F00100A3
:102F20000B68186005E00868006840F001000B6855
:102F300018600020C0E700000000014000040040CD
:102F400000080040000C0040000401400040014027
:102F5000001800402DE9F04104460D46002700BF4F
:102F600094F83C00012802D10220BDE8F081012044
:102F700084F83C0000BF022084F83D002068866889
:102F800026F0770626F47F46206886602868502859
:102F900033D00CDC202850D004DC00284BD0102883
:102FA00051D149E0302849D040284CD139E060283F
:102FB0002DD0702807D0B0F5805F03D0B0F5005F4A
:102FC00041D10DE041E0D5E902136A68206803F0C1
:102FD000AEFB2068866846F077062068866034E09D
:102FE000D5E902136A68206803F0A1FB20688068B5
:102FF00040F480402168886027E0EA6869682068BA
:1030000003F086FC5021206803F09CFB1DE0EA6879
:103010006968206803F08FFC6021206803F092FB50
:1030200013E0EA686968206803F072FC40212068B8
:1030300003F088FB09E000BF00BF00BF29682068DB
:1030400003F080FB01E0012700BF00BF012084F8EE
:103050003D0000BF002084F83C0000BF384684E7F4
:10306000704710B5044620680069C0F34000D8B12D
:103070002068C068C0F34000B0B16FF00200216862
:103080000861012020772068806900F0030018B1F2
:103090002046FFF7E5FF05E0204600F0DDF820467A
:1030A00000F091F90020207720680069C0F38000CB
:1030B000D8B12068C068C0F38000B0B16FF00400E0
:1030C00021680861022020772068806900F4407040
:1030D00018B12046FFF7C4FF05E0204600F0BCF819
:1030E000204600F070F90020207720680069C0F3C6
:1030F000C000D8B12068C068C0F3C000B0B16FF0A4
:10310000080021680861042020772068C06900F069
:10311000030018B12046FFF7A3FF05E0204600F0AA
:103120009BF8204600F04FF90020207720680069C6
:10313000C0F30010D8B12068C068C0F30010B0B16F
:103140006FF0100021680861082020772068C069AE
:1031500000F4407018B12046FFF782FF05E02046DA
:1031600000F07AF8204600F02EF900202077206841
:10317000006900F0010058B12068C06800F001004B
:1031800030B16FF0010021680861204600F0A2F91B
:1031900020680069C0F3C01058B12068C068C0F34F
:1031A000C01030B16FF08000216808612046FFF741
:1031B0009FFD20680069C0F3801058B12068C06886
:1031C000C0F3801030B16FF04000216808612046E4
:1031D00000F0FAF920680069C0F3401058B1206887
:1031E000C068C0F3401030B16FF020002168086162
:1031F0002046FFF77EFD10BD10B586B004461421B1
:1032000001A8FDF79FF91149206888421CD100BF31
:10321000002000900E48006840F002000C49086051
:103220000846006800F00200009000BF00BF0320C5
:10323000019002200290002003900490022005904B
:1032400001A90448FEF79CFF06B010BD0004004031
:10325000303802400004024070472DE9F041044636
:103260000D461646002700BF94F83C00012802D105
:103270000220BDE8F081012084F83C0000BF36B197
:10328000042E1BD0082E31D00C2E5ED145E02946ED
:10329000206803F061FA2068806940F00800216826
:1032A00088612068806920F00400216888612068B6
:1032B0008069296908432168886148E029462068B7
:1032C00003F082FA2068806940F400602168886118
:1032D0002068806920F480602168886120688069A6
:1032E000296940EA01202168886130E02946206888
:1032F00003F0A8FA2068C06940F008002168C8619E
:103300002068C06920F004002168C8612068C06995
:10331000296908432168C86119E02946206803F03B
:10332000CDFA2068C06940F400602168C861206857
:10333000C06920F480602168C8612068C06929697B
:1033400040EA01202168C86101E0012700BF00BFF9
:1033500000BF002084F83C0000BF384689E710B564
:1033600004460CB9012010BD94F83D0028B9002096
:1033700084F83C00204600F025F8022084F83D0047
:10338000211D206803F056F9012084F8460000BF93
:1033900084F83E0001213F20015540200155412085
:1033A000015500BF00BF012084F8420043200155B1
:1033B000442001554520015500BF012084F83D00FF
:1033C0000020D0E77047704770B504460D4615B928
:1033D00094F83E000BE0042D02D13F20005D06E092
:1033E000082D02D14020005D01E04120005D012850
:1033F00001D0012070BD1DB9022084F83E000EE00E
:10340000042D03D102213F20015508E0082D03D1EE
:1034100002214020015502E00221412001550122F4
:103420002946206803F072F923492068884203D0B6
:1034300022492068884201D1012000E0002028B103
:103440002068406C40F40040216848641A492068B4
:1034500088421BD02068B0F1804F17D018492068EF
:10346000884213D01749206888420FD01649206837
:1034700088420BD011492068884207D01349206840
:10348000884203D01249206888420CD120688068A5
:1034900000F00706062E0CD02068006840F00100FE
:1034A0002168086005E02068006840F0010021689C
:1034B000086000209EE70000000001400004014079
:1034C0000004004000080040000C004000400140A3
:1034D0000018004010B504462F492068884201D1E9
:1034E000FEF75AFF2D48844255D12D4890F900002F
:1034F000C0432C4991ED000A02F068FE284890F97B
:10350000000002F0B1FD26480078072801D102F042
:103510008BFE2548006880BB03F0A8FE234890ED91
:10352000080AF1EE040AB4EEE00AF1EE10FA05DD45
:10353000B3EE040A1E4880ED040A04E09FED1D0A64
:103540001B4880ED040A1A4890ED041AF0EE410A77
:1035500090ED031AB0EE410A9FED172ADFED171A1E
:10356000B0EE0C1A012203211548FDF7DAFA0E48D5
:103570000068401C0C4908600DE0FFE70A4800683D
:10358000012808D105F032FE0E490D4800F08AFFEF
:1035900000200549086010BD00140040E01600201E
:1035A0003C0000203800002044000020345B002054
:1035B000BC0100200000000052B89E3ECDCC4C3E25
:1035C000901600208C5B00207047704770B5044651
:1035D000002520684069C0F3C01594F83D002128FB
:1035E00017D1B5B100BF00BF2168143151E8001FE9
:1035F00021F080002168143141E80002002AF3D153
:1036000000BF606B10B1606BFEF7DBFA204603F081
:103610005DFB20684069C0F3801594F83E002228C5
:1036200017D1B5B100BF00BF2168143151E8001FA8
:1036300021F040002168143141E80002002AF3D152
:1036400000BFA06B10B1A06BFEF7BBFA204603F0E1
:10365000F7FA002070BD70472DE9F84F0446206846
:1036600005682068C668206847694FF00009CA46A7
:1036700005F00F09B9F1000F0AD105F0200038B1AB
:1036800006F0200020B1204603F033FBBDE8F88FA0
:10369000B9F1000F7CD007F0010018B906F4907062
:1036A000002875D005F0010030B106F4807018B123
:1036B000206C40F00100206405F0040030B107F0F8
:1036C000010018B1206C40F00200206405F00200F7
:1036D00030B107F0010018B1206C40F00400206404
:1036E00005F0080048B106F0200010B907F001000D
:1036F00018B1206C40F008002064206C002846D0EF
:1037000005F0200028B106F0200010B1204603F09B
:10371000F0FA20684069C0F3801A206C00F00800BD
:1037200010B9BAF1000F2DD0204603F089FA2068B5
:10373000406900F04000402820D100BF00BF216850
:10374000143151E8001F21F040002168143141E894
:103750000002002AF3D100BFA06B50B17548A16BE5
:103760000865A06BFEF783FA88B1A06B016D8847EE
:103770000DE02046FFF76FFF09E009E02046FFF764
:103780006AFF04E02046FFF766FF002020647DE723
:10379000206B012876D105F01000002872D006F0C9
:1037A00010000028FAD000BF0020009020680068B8
:1037B000009020684068009000BF00BF206840690A
:1037C00000F0400040285ED1A06B006840681FFAFE
:1037D00080F8B8F1000F54D0A08D404551DDA4F819
:1037E0002E80A06BC069B0F5807F43D000BF00BFC2
:1037F00021680C3151E8001F21F4807021680C31E0
:1038000041E80002002AF3D100BF00BF00BF2168D9
:10381000143151E8001F21F001002168143141E802
:103820000002002AF3D100BF00BF00BF216814319D
:1038300051E8001F21F040002168143141E80002E6
:10384000002AF3D100BF202084F83E00002020632E
:1038500000BF00BF21680C3151E8001F21F01000AB
:1038600021680C3141E80002002AF3D100BFA06BAF
:10387000FEF7A7F9A08DE28D801A81B22046FFF7EE
:10388000A4FE03E740E0A08DE18D401A1FFA80F806
:10389000E08DC0B3B8F1000F35D000BF00BF216884
:1038A0000C3151E8001F21F4907021680C3141E87F
:1038B0000002002AF3D100BF00BF00BF216814310D
:1038C00051E8001F21F001002168143141E8000295
:1038D000002AF3D100BF202084F83E00002020639E
:1038E00000BF00BF21680C3151E8001F21F010001B
:1038F00021680C3141E80002002AF3D100BF4146A3
:103900002046FFF762FEC1E605F0800030B106F008
:10391000800018B1204603F0E5FBB7E605F0400053
:1039200030B106F0400018B1204603F0BFF9ADE613
:1039300000BFABE60D6B000810B504460CB90120C2
:1039400010BDA06900B100E000BF94F83D0028B9A7
:10395000002084F83C00204600F028F8242084F859
:103960003D002068C06820F400502168C8602046EF
:1039700003F03CFA2068006920F490402168086157
:103980002068406920F02A00216848612068C068EA
:1039900040F400502168C86000202064202084F892
:1039A0003D0084F83E000020CAE7000010B586B054
:1039B0000446142101A8FCF7C5FDF249206888429D
:1039C00072D100BF00200090EF48006840F48010E2
:1039D000ED4908600846006800F48010009000BFC0
:1039E00000BF00BF00200090E7481038006840F09A
:1039F0000400E549103908600846006800F004003A
:103A0000009000BF00BF00BF002000900846006883
:103A100040F0080008600846006800F008000090C8
:103A200000BF00BF88140190022002900020039084
:103A3000032004900820059001A9D448FEF7A0FBBC
:103A400004200190022002900020039003200490A3
:103A50000820059001A9CE48FEF792FBCD48CE493B
:103A60000860C00548600021CB488160C1604FF408
:103A700080610161002141618161C1610162416236
:103A8000FEF72AFA08B1FDF76EF900BFC248A0633D
:103A9000846300BF002205213520FEF727FD352075
:103AA000FEF714FD6BE1FFE7BC492068884278D13E
:103AB00000BF00200090B448001D006840F01000D6
:103AC000B149091D08600846006800F01000009028
:103AD00000BF00BF00BF00200090AB481038006856
:103AE00040F00100A849103908600846006800F05D
:103AF0000100009000BF00BF4FF4C06001900220A1
:103B0000029000200390032004900720059001A953
:103B1000A348FEF735FBA348A34908604FF00060B7
:103B200048600021A0488160C1604FF4806101615C
:103B3000002141618161C16101624162FEF7CCF9FE
:103B400008B1FDF710F900BF9748A063846300BF78
:103B500094487830954908604FF0006048604021F3
:103B6000924881600021C1604FF4806101610021B1
:103B700041618161C16101624162FEF7ADF908B145
:103B8000FDF7F1F800BF89486063846300BF00223D
:103B900006212520FEF7AAFC2520FEF797FCEEE083
:103BA000FFE783492068884276D100BF002000905B
:103BB0007548006840F400307349086008460068A2
:103BC00000F40030009000BF00BF00BF0020009054
:103BD0006D481038006840F001006B4910390860EA
:103BE0000846006800F00100009000BF00BF0C20F4
:103BF00001900220029000200390032004900720EF
:103C0000059001A96648FEF7BBFA62487830694919
:103C100008604FF000604860002166488160C16024
:103C20004FF480610161002141618161C1610162E4
:103C30004162FEF751F908B1FDF795F800BF5D4804
:103C4000A063846300BF534890305B4908604FF025
:103C5000006048604021584881600021C1604FF4F5
:103C600080610161002141618161C1610162416244
:103C7000FEF732F908B1FDF776F800BF4E486063F1
:103C8000846300BF002205212620FEF72FFC26209A
:103C9000FEF71CFC73E0FFE74849206888426ED1BC
:103CA00000BF002000903848001D006840F0200050
:103CB0003549091D08600846006800F020000090A2
:103CC00000BF00BF00BF002000902F4810380068E0
:103CD00040F040002C49103908600846006800F0A8
:103CE0004000009000BF00BF4FF4844001900220CC
:103CF000029000200390032004900820059001A961
:103D00002F48FEF73DFA274818382E4908608005ED
:103D1000486000212B488160C1604FF480610161DF
:103D2000002141618161C16101624162FEF7D4F805
:103D300008B1FDF718F800BF2248A063846300BFF4
:103D400018486030204908604FF0206048604021EA
:103D50001D4881600021C1604FF480610161002134
:103D600041618161C16101624162FEF7B5F808B14C
:103D7000FCF7F9FF00BF14486063846300BF06B01E
:103D800010BD0000005000404038024000080240D2
:103D9000000C024010600240401900200010014059
:103DA0000000024040640240A0190020001A0020D8
:103DB00000440040601A0020C01A00200014014096
:103DC00000180240201B0020801B002070B5044614
:103DD0000D46164694F83E00202816D105B10EB9BE
:103DE000012070BD00BF94F83C00012801D10220E1
:103DF000F7E7012084F83C0000BF00202063324632
:103E00002946204603F008F9EBE70220E9E770476E
:103E10007047704700BFFEE72DE9F0472DED048B9A
:103E200080460C46164698F8009000270025B9F108
:103E3000520F5DD1207855285AD16078552857D136
:103E400000BFA078E17840EA0120074300EE107A35
:103E5000B8EE400ADFED280A20EE200ADFED270A3F
:103E600080EE201A86ED031A00213182A079E179D3
:103E700040EA0120318A0843308200BF207961790D
:103E800040EA0120054300EE105AB8EE400A1C48F3
:103E900080ED000AE91321B14FF6FF7285EA0201B5
:103EA00000E02946084607F0B2F841EC190BB0EEE5
:103EB000490AF0EE690A03F08BFEB0EE408AF0EE9C
:103EC000608A51EC180B07F075F885B200EE105AB5
:103ED000B8EE400ADFED080A60EE200A9FED071AEF
:103EE00080EE810ADFED070A80EE201A86ED051AC2
:103EF000BDEC048BBDE8F0870000B4430000004730
:103F000090010020CDCCCC3D00BF06F0A5FD0120E6
:103F100005F0A4F9F9E700BF012005F09FF9FBE7E0
:103F200010B52DED068BB0EE408AB0EE609AF0EE43
:103F3000418A9248D0ED050A60EEA00A90ED051A7C
:103F400060EE810AB0EE600AFCF76FFBF2EE040A45
:103F500020EE20AA8948D0ED050A60EEA00AB0EE56
:103F6000600AFCF762FBF0EE409A8548D0ED050A46
:103F700060EEA00AB0EE600AFCF757FB39EE800A4B
:103F8000CAEE000A7D48C0ED010A7D48D0ED050A61
:103F900060EEA00A90ED051A60EE810AB0EE600AAC
:103FA000FCF743FBF2EE040A20EE20AA7348D0EDA2
:103FB000050A60EEA00AB0EE600AFCF736FBF0EEF0
:103FC000409A6F48D0ED050A60EEA00AB0EE600A94
:103FD000FCF72BFB39EE800ACAEE000A6848C0EDF8
:103FE000010A6848D0ED050A60EEA00A90ED051AB6
:103FF00060EE810AB0EE600AFCF717FBF2EE040AED
:1040000020EE20AA5D48D0ED050A60EEA00AB0EED1
:10401000600AFCF70AFBF0EE409A5948D0ED050A19
:1040200060EEA00AB0EE600AFCF7FFFA79EE809A23
:104030005248D0ED050AB0EE600AFCF7F6FA39EE08
:10404000800ACAEE000A4F48C0ED010A4E48D0ED82
:10405000000AB0EE600AF0EE480A4A4801F086FA1B
:10406000484890ED0A0ADFED490AB4EEE00AF1EEA5
:1040700010FA03DD9FED450A80ED0A0A414890EDF4
:104080000A0ADFED430AB4EEE00AF1EE10FA03D2B9
:104090009FED3F0A80ED0A0A3A4890ED0A0A3D4832
:1040A00080ED020A3848D0ED030AB0EE600AF0EE67
:1040B000490A324801F05AFA304890ED0A0ADFED19
:1040C000330AB4EEE00AF1EE10FA03DD9FED2F0A99
:1040D00080ED0A0A294890ED0A0ADFED2D0AB4EEB8
:1040E000E00AF1EE10FA03D29FED290A80ED0A0AE8
:1040F000224890ED0A0A274880ED000A2248D0EDB8
:10410000040AB0EE600AF0EE680A1D4801F02EFACB
:104110001B4890ED0A0ADFED1D0AB4EEE00AF1EE4D
:1041200010FA03DD9FED190A80ED0A0A144890ED9C
:104130000A0ADFED170AB4EEE00AF1EE10FA03D234
:104140009FED130A80ED0A0A0D4890ED0A0A114806
:1041500080ED010A0C48D0ED000AB0EE600A0E496D
:104160000C4804F045FA0D4880ED000AC0ED010A44
:1041700080ED021ABDEC068B10BD00002813002054
:1041800084130020E0130020E017002000409C452D
:1041900000409CC5FC0F00202010002014100020BF
:1041A00000B502460B4600EE103AB8EEC00A82EDAA
:1041B0004E0AB2F9020000EE100AB8EEC00A82ED13
:1041C0004D0ADFED0D2A9FED0C2ADFED0C1A9FED55
:1041D0000B1ADFED0B0A9FED0A0A02F5867000F05C
:1041E000C7FF92ED4C0ABDEEC00A10EE100A00B2F5
:1041F000A2F8920100BD00000000000000FEFF4692
:104200000000484200B502460B4600EE103AB8EEF8
:10421000C00A82ED0E0A92ED630AB8EEC00A82ED82
:104220000D0ADFED1B2A9FED1A2ADFED1A1A9FED0A
:10423000191ADFED190A9FED180A02F10C0000F0BF
:1042400097FF92ED0C0A82ED2E0AB2F9020000EE01
:10425000100AB8EEC00A82ED2D0ADFED0D2A9FED9F
:104260000C2ADFED0C1A9FED0B1ADFED0B0A9FED08
:104270000A0A02F18C0000F07BFF92ED2C0ABDEEE1
:10428000C00A10EE100A00B2A2F8920100BD0000B0
:104290000000000000FEFF4600004842F0B5054661
:1042A0000C462E7806F00F00002100236678277850
:1042B00046EA072637B2461E06EB061602EBC6068E
:1042C00077800027461E06EB061622F83670E67841
:1042D000A77846EA0726471E07EB071732F837701C
:1042E0003E4337B2461E06EB061622F83670461ECF
:1042F00006EB061602EBC606B6F90270461E06EB82
:10430000061602EBC606B6F90460B7424ADD461E41
:1043100006EB061602EBC6067788461E06EB061667
:1043200002EBC606B688BE1BB1B2461E06EB0616E9
:1043300002EBC606768841F6FF77BF1B461E06EBEA
:10434000061602EBC606B6883E44B3B2994214DDA7
:10435000461E06EB061602EBC606D6ED020A00EE76
:10436000103AB8EE400A30EE800A461E06EB0616FA
:1043700002EBC60686ED020A5EE0461E06EB061656
:1043800002EBC606D6ED020A00EE101AB8EE400A9D
:1043900030EE800A461E06EB061602EBC60686EDD8
:1043A000020A49E0461E06EB061602EBC606B7886F
:1043B000461E06EB061602EBC6067688BE1BB1B299
:1043C000461E06EB061602EBC606B68841F6FF77D8
:1043D000BF1B461E06EB061602EBC60676883E4459
:1043E000B3B2994214DD461E06EB061602EBC60672
:1043F000D6ED020A00EE103AB8EE400A30EEC00ADE
:10440000461E06EB061602EBC60686ED020A13E010
:10441000461E06EB061602EBC606D6ED020A00EEB5
:10442000101AB8EE400A30EEC00A461E06EB061619
:1044300002EBC60686ED020A461E06EB061602EBE6
:10444000C60696ED020A461E06EB061602EBC606E7
:10445000D6ED030A30EE600ABDEEC00A10EE106A17
:1044600037B2461E06EB061602EBC6063782461E1C
:1044700006EB061602EBC6067788461E06EB061606
:1044800002EBC606B780461E06EB061602EBC60612
:1044900096ED020A461E06EB061602EBC60686EDF0
:1044A000030AF0BD70B58AB006460C4600254FF4ED
:1044B0000070049000200690079008200890608A01
:1044C000000A8DF80800A07C8DF809009A20005B96
:1044D000000A8DF80A009A20005D8DF80B004FF459
:1044E0009170005B000A8DF80C004FF49170005D34
:1044F0008DF80D004FF4D570005B000A8DF80E00AA
:104500004FF4D570005D8DF80F0001E0681C85B296
:1045100001AB02AA04A93046FCF741FD18B140F6F0
:10452000FF708542F2DB0AB070BD30B50021002279
:10453000B0F90040B0F99051AC420CDDB0F9004048
:10454000B0F99051611BB0F90040A4F50054B0F9E6
:104550009051621B0BE0B0F90040B0F99051611B23
:10456000B0F9004004F50054B0F99051621B0029E5
:1045700001DD0C4600E04C42002A01DD154600E05A
:104580005542AC4201DA0B4600E013460488A0F81D
:104590009041D0F88C411C44C0F88C4130BD0000E3
:1045A0009FED5C0A80ED030A9FED5B0A80ED040A33
:1045B0009FED590A80ED050AB2EE040A80ED230A48
:1045C0009FED560A80ED240AB1EE040A80ED250A1B
:1045D000B2EE020A80ED430A9FED510A80ED440AD3
:1045E000B0EE000A80ED450A9FED4A0A80ED690AA7
:1045F0009FED490A80ED6A0A9FED470A80ED6B0A3C
:10460000B2EE040A80ED890A9FED440A80ED8A0A21
:10461000B1EE040A80ED8B0AB2EE020A80EDA90A1F
:104620009FED3F0A80EDAA0AB0EE000A80EDAB0ACA
:104630009FED380A80EDCF0A9FED370A80EDD00A52
:104640009FED350A80EDD10AB2EE040A80EDEF0A43
:104650009FED320A80EDF00AB1EE040A80EDF10A16
:10466000B2EE020A00F54C7181ED430A9FED2C0A6F
:1046700081ED440AB0EE000A81ED450A9FED250A5E
:1046800000F5996181ED030A9FED230A81ED040A8B
:104690009FED210A81ED050AB2EE040A81ED230A9D
:1046A0009FED1E0A81ED240AB1EE040A81ED250A70
:1046B0000188A0F890110021C0F88C11B0F82813DF
:1046C000A0F898110022C0F82423B0F8C014A0F874
:1046D0003013C0F8BC24B0F85816A0F8C814C0F8BD
:1046E0005426B0F8F017A0F86016C0F8EC27B0F820
:1046F0008819A0F8F817C0F88429B0F8201BA0F892
:104700009019C0F81C2BB0F8B81CA0F8281BC0F8F2
:10471000B42C7047CDCC4C3E00000000CDCC4C3FBB
:10472000CDCCCC3E10B50D480D4908600320486043
:1047300000210B488160C1604FF4302101610021EC
:104740004161017641768176C17601774177FCF748
:1047500048FF08B1FCF707FB10BD000000640040F3
:104760009016002010B50D480D49086003204860E0
:1047700000210B488160C1604FF4302101610021AC
:104780004161017641768176C17601774177FCF708
:1047900028FF08B1FCF7E7FA10BD000000680040F0
:1047A000B816002008B500BF002000902A48006815
:1047B00040F48000284908600846006800F4800042
:1047C000009000BF00BF00BF0020009008460068B6
:1047D00040F4001008600846006800F400100090E3
:1047E00000BF00BF002205210B20FDF77FFE0B203C
:1047F000FDF76CFE002205211020FDF777FE10204A
:10480000FDF764FE002205211120FDF76FFE112047
:10481000FDF75CFE002205213920FDF767FE3920F7
:10482000FDF754FE002205213A20FDF75FFE3A20F5
:10483000FDF74CFE002205214520FDF757FE4520DF
:10484000FDF744FE002205214620FDF74FFE4620DD
:10485000FDF73CFE08BD00003038024000B5ABB0AB
:104860001C22244924A8FBF73BFE002124A804F0C5
:1048700006FD214908601C221E491C311DA8FBF7BA
:104880002FFE00211DA804F0FAFC1C4908601C2220
:104890001849383116A8FBF723FE002116A804F0AA
:1048A000EEFC174908601C22124954310FA8FBF78F
:1048B00017FE00210FA804F0E2FC124908601C2238
:1048C0000C49703108A8FBF70BFE002108A804F082
:1048D000D6FC0D4908601C2206498C3101A8FBF763
:1048E000FFFD002101A804F0CAFC084908602BB0B4
:1048F00000BD000054B70008B4000020B80000203C
:10490000BC000020C0000020C4000020C80000201F
:1049100000B587B0142102A8FBF714FE00BF0020E9
:1049200001905C48006840F004005A49086008465D
:10493000006800F00400019000BF00BF00BF00202D
:1049400001900846006840F0800008600846006852
:1049500000F08000019000BF00BF00BF0020019068
:104960000846006840F0010008600846006800F052
:104970000100019000BF00BF00BF00200190084669
:10498000006840F0020008600846006800F002007D
:10499000019000BF00BF00BF0020019008460068E2
:1049A00040F0100008600846006800F01000019018
:1049B00000BF00BF00BF002001900846006840F023
:1049C000080008600846006800F00800019000BF79
:1049D00000BF00BF002001900846006840F0400082
:1049E00008600846006800F04000019000BF00BF6A
:1049F000012251032848FDF7C3FC00224FF4416116
:104A00002548FDF7BDFC4FF40050029001200390B3
:104A100004900020059002A91F48FDF7B1FB8020FB
:104A200002904FF4441003900220049002A91B4806
:104A3000FDF7A6FB4FF44160029001200390022095
:104A400004900020059002A91348FDF799FB4FF44C
:104A5000807002904FF4441003900220049002A949
:104A60000F48FDF78DFB4FF4007002904FF4441097
:104A700003900220049002A90A48FDF781FB00225E
:104A800005211720FDF732FD1720FDF71FFD07B0A8
:104A900000BD000030380240000802400000024023
:104AA00000100240000C024000B587B000200390C7
:104AB000049005900690019002904FF080401449B8
:104AC00008605320486000211148816040F2CF7196
:104AD000C160002101618161FEF766F908B1FCF750
:104AE00042F94FF48050039003A90948FEF732FAC7
:104AF00008B1FCF738F900200190029001A90448A0
:104B0000FEF7F8F808B1FCF72EF907B000BD000079
:104B1000E016002000B58DB0002009900A900B909F
:104B20000C90079008901C216846FBF70BFD244869
:104B300024490860A720486000212248816044F68B
:104B40001F61C1600021016180218161FEF72CF9A4
:104B500008B1FCF708F94FF48050099009A91948E9
:104B6000FEF7F8F908B1FCF7FEF81648FEF7F7FB78
:104B700008B1FCF7F8F800200790089007A9114841
:104B8000FEF7B8F808B1FCF7EEF8602000900020BE
:104B9000019002900490082269460A48FEF75DFBE6
:104BA00008B1FCF7E0F80C2269460648FEF755FB11
:104BB00008B1FCF7D8F80348FEF71EFB0DB000BDA6
:104BC00000040040281700201CB500200090019030
:104BD0000E480F49086040F24730486000210C48F9
:104BE00081604FF6FF71C16000218161FEF7DCF842
:104BF00008B1FCF7B8F8002000900190694604481D
:104C0000FEF778F808B1FCF7AEF81CBD00100040C4
:104C10007017002010B50B480B4908604FF4E130C5
:104C20004860002108488160C16001610C21416138
:104C300000218161C161FEF77FFE08B1FCF793F8A6
:104C400010BD0000005000403018002010B50B4887
:104C50000B4908604FF4E13048600021084881604A
:104C6000C16001610C21416100218161C161FEF7D8
:104C700063FE08B1FCF777F810BD0000001001409A
:104C80007418002010B50B480B4908604FF4E13050
:104C90004860002108488160C16001610C214161C8
:104CA00000218161C161FEF747FE08B1FCF75BF8A6
:104CB00010BD000000440040B818002010B50B489B
:104CC0000B4908604FF4E1304860002108488160DA
:104CD000C16001610C21416100218161C161FEF768
:104CE0002BFE08B1FCF73FF810BD00000014014096
:104CF000FC18002010B52DED028B0446B0EE408A62
:104D0000F0EE608AD4ED020AB0EE600AF0EE480AD6
:104D100004F1140000F052FBD4ED110AB0EE600A69
:104D2000F0EE680A01F0A4FB84ED110A94ED111A6B
:104D3000F0EE410AB4F9000001EE100AB8EEC11A13
:104D4000B0EE410A04F1480000F0D6FAD4ED1E0A94
:104D5000B0EE600ADFED0A0A01F08AFB84ED1E0A5C
:104D600094ED1E0A84ED210A94ED210ABDEEC00ADD
:104D700010EE100A00B26082BDEC028B10BD000084
:104D80000080BB4510B52DED028B0446B0EE408A85
:104D9000D4ED020AB0EE600AF0EE480A04F1140005
:104DA00000F00CFBD4ED110AB0EE600ADFED0A0A48
:104DB00001F05EFB84ED110A94ED110A84ED1F0AE7
:104DC00094ED1F0ABDEEC00A10EE100A00B2608218
:104DD000BDEC028B10BD00000080BB4570B52DED11
:104DE000028B04460D46B0EE408AF0EE608AD5EDA7
:104DF000000AB0EE600AF0EE480A04F1140000F078
:104E0000DDFAD4ED110AB0EE600AF0EE680A01F0A6
:104E10002FFB84ED110A94ED111AF0EE410AB4F95A
:104E2000000001EE100AB8EEC11AB0EE410A04F11A
:104E3000480000F061FAD4ED1E0AB0EE600ADFED22
:104E40000A0A01F015FB84ED1E0A94ED1E0A84ED9A
:104E5000210A94ED210ABDEEC00A10EE100A00B23C
:104E60006082BDEC028B70BD0080BB4510B5074869
:104E70000068C06840F0100004490968C8601E223C
:104E800003490248FEF7A2FF10BD0000741800207D
:104E90001018002010B52DED028B524800780D2817
:104EA0007ED1504840780A287AD14E48801C04F0C0
:104EB00071F8B0EE408A4C4890ED000AB4EEC80A92
:104EC000F1EE10FA13D290ED000A38EE400A47488E
:104ED00080ED000A444890ED000A38EE400ADFED0C
:104EE000440A30EE600A434880ED000A13E03E4871
:104EF00090ED000A38EE400A3C4880ED000A9FED34
:104F00003C0A38EE000A3848D0ED000A30EE600A5C
:104F1000384880ED000A354890ED000AFBF792FB17
:104F2000F0EE408A334890ED000AFBF78BFBF4EE7D
:104F3000C08AF1EE10FA03DD2E4890ED000A02E07F
:104F40002A4890ED000A2C4880ED000A264880EDA2
:104F5000008A2A4890ED000A2748D0ED000A30EE7A
:104F6000200A264880ED000A1E48123004F012F88C
:104F7000224880ED040A1B480E3004F00BF81F484D
:104F800080ED030A1748163004F004F8DFED1C0A20
:104F900030EE200A194880ED050A90ED030A00E082
:104FA0001CE01848D0ED000A30EE600A1648D0ED3B
:104FB000000A9FED161A60EE810A80EE201A14484E
:104FC00080ED001A0D4890ED030A0E4880ED000AAE
:104FD0009FED100A0C4880ED000A00BFBDEC028B6B
:104FE00010BD000010180020D0000020D4000020C8
:104FF0000000B443D8000020DC000020E0170020AF
:10500000CDCC4C3F10010020400000206F12833AAD
:105010000C0100200000000000BFFEE700BFFEE71B
:1050200010B547480068401C4549086008460068BC
:1050300042F21071884202D100204149086080216B
:105040004048FDF795F9404908604FF400713F482A
:10505000FDF78EF93E4908604FF480713D48FDF739
:1050600087F93D49086080213648FDF781F998B9F4
:105070003A48007800F0010070B9394890ED630AB1
:10508000B8EEC00A374880ED0F0A344890F90000A6
:1050900040F001003149087080212A48FDF768F985
:1050A0002949086080203049086081002748FDF7C1
:1050B0005FF998B92948007800F0020070B92848D3
:1050C00090EDC90AB8EEC00A264880ED170A2348B9
:1050D00090F9000040F00200204908704FF4007180
:1050E0001A48FDF745F91A4908604FF400701E4947
:1050F000086041101748FDF73BF9012813D1174804
:10510000007800F0040070B9184890ED630AB8EE1A
:10511000C00A144880ED1F0A104890F9000040F0C2
:1051200004000E4908704FF480710A48FDF720F919
:10513000094908604FF480700B49086010BD0000F9
:105140001C0000200000024050000020000C024023
:105150005400002000100240580000203C000020B5
:10516000F0010020500F0020143C014020050020D9
:1051700000B50146B0EE405AF0EE605AB0EE413A4A
:10518000F0EE613AB0EE424AF0EE624A91ED0B0A5F
:10519000D1ED0A0A30EE600A81ED0C0A91ED0A0A9F
:1051A00081ED150A91ED0B0A81ED0B0A91ED0C0AC8
:1051B000B5EEC00AF1EE10FA02DD91ED0C0A03E043
:1051C00091ED0C0AB1EE400AD1ED0E0AB4EEE00A00
:1051D000F1EE10FA63DD91ED000AD1ED0C0A20EE3C
:1051E000200A81ED100A91ED010AD1ED0C0A20EEA2
:1051F000200A81ED0F0A91ED0C0AD1ED0D0A30EE77
:10520000600AD1ED020A20EE200A81ED110AC86D74
:1052100010B1084603F08FFC086E30B1F0EE650A5D
:10522000B0EE450A084603F085FB486E30B1F0EE5B
:10523000630AB0EE430A084603F0F0FB886E10B133
:10524000084603F0DEFBC86E20B1B0EE440A084603
:1052500003F0C8FB91ED130AD1ED0F0A30EE200ADE
:1052600081ED130A91ED100AD1ED130A30EE200AF8
:10527000D1ED110A30EE200A81ED090A086F20B144
:10528000B0EE640A084603F019FCB0EE430A084683
:1052900003F023FCB0EE430A084603F035FC91ED21
:1052A000150A81ED140A91ED090A81ED160A91EDB6
:1052B000110A81ED120A91ED0C0A81ED0D0A91EDB2
:1052C0000C0AB5EEC00AF1EE10FA02DD91ED0C0AFF
:1052D00003E091ED0C0AB1EE400ADFED060AB4EEF0
:1052E000E00AF1EE10FA02D20120486701E0002046
:1052F000486700BD0000FA4480ED000AC0ED010AD5
:1053000030EEC01A80ED051A90ED051AF2EE041A7F
:10531000B4EEE11AF1EE10FA0CD290ED051AFAEEA5
:10532000041AB4EEE11AF1EE10FA03DD9FED221A31
:1053300080ED051A90ED051AD0ED061A31EE611ACE
:10534000D0ED021A21EE211A80ED091A90ED031A10
:10535000D0ED051A21EE211A80ED0A1A90ED051AFA
:10536000D0ED061A31EE611AD0ED071A90ED062A3B
:1053700071EEC21A31EE211AD0ED041A21EE211A73
:1053800080ED0B1A90ED0B1AD0ED0A1A31EE211AAE
:10539000D0ED091A31EE211AD0ED0C1A31EE211A96
:1053A00080ED0C1A90ED061A80ED071A90ED051AA3
:1053B00080ED061A704700000000000080ED000A32
:1053C000C0ED010A30EEC01A80ED051A90ED051A05
:1053D000F1EE041AB4EEE11AF1EE10FA0CD290EDEF
:1053E000051AF9EE041AB4EEE11AF1EE10FA03DD33
:1053F0009FED1C1A80ED051A90ED081AD0ED051AE4
:1054000031EE211A80ED081A90ED051AD0ED061A3A
:1054100031EE611AD0ED041A21EE211A80ED0B1A3B
:1054200090ED051A80ED061A90ED021AD0ED051ADE
:1054300021EE211A80ED091A90ED031AD0ED081A19
:1054400021EE211A80ED0A1A90ED0B1AD0ED0A1AFE
:1054500031EE211AD0ED091A31EE211A80ED0C1A25
:1054600070470000000000009FED060A80ED0A0A68
:105470009FED040A80ED060A9FED020A80ED0B0AFB
:10548000704700000000000080ED010AC0ED020A34
:1054900080ED031AC0ED091A80ED082A704700005C
:1054A00000B5B3EE0E2AF6EE001A9FED251ADFEDD9
:1054B000250AB1EE040A2448FFF7E6FFB3EE0E2AF0
:1054C000F7EE001A9FED1E1ADFED1E0AB1EE040A78
:1054D0001E48FFF7D9FFB3EE0E2AF7EE001A9FED34
:1054E000181ADFED180AB1EE040A1948FFF7CCFFCD
:1054F0009FED182ADFED181A9FED111ADFED170A3C
:10550000B1EE040A1648FFF7BFFF9FED122AF7EE2F
:10551000001A9FED0B1ADFED0B0AB1EE040A1148D9
:10552000FFF7B2FF9FED062AF7EE001A9FED041A6F
:10553000DFED040AB1EE040A0B48FFF7A5FF00BD3A
:10554000000000000AD7233CE013002028130020AD
:105550008413002000007A43CDCCCC3D6F12833AF7
:10556000B81100205C1100200011002010B52DEDB5
:10557000028B0446B0EE408AF0EE608A84ED048A25
:10558000C4ED008A94ED000AD4ED040A30EE600AFE
:1055900084ED050AD4ED050AB0EE600AFBF745F884
:1055A000D4ED090AB4EEE00AF1EE10FA08D29FED4C
:1055B000350A84ED0A0A9FED330A84ED0B0A5DE09B
:1055C00094ED010AD4ED050A20EE200AD4ED020A7A
:1055D00094ED0B1A00EE810AD4ED050A94ED061A3B
:1055E00030EEC11AD4ED031AF0EE400A41EE810A02
:1055F00094ED050AB5EEC00AF1EE10FA02DD94ED65
:10560000080A03E094ED080AB1EE400A30EE800A81
:1056100084ED0A0AD4ED050AB0EE600AFBF705F83E
:10562000F7EE000AB4EEE00AF1EE10FA07DD94EDB1
:105630000B0AD4ED050A30EE200A84ED0B0A94ED36
:105640000B0ADFED110AB4EEE00AF1EE10FA04DD08
:105650009FED0D0A84ED0B0A0CE094ED0B0ADFEDD3
:105660000B0AB4EEE00AF1EE10FA03D29FED070A3E
:1056700084ED0B0A94ED050A84ED060ABDEC028B5D
:1056800010BD0000000000000060EA460060EAC6AD
:105690004FF480600249088048808880C880704745
:1056A000CC17002010B53C2202490348FAF718FF36
:1056B00010BD000000000608381C002010B504468C
:1056C000207801285ED100202070D4ED092A94EDC5
:1056D000082AD4ED071A94ED061AD4ED050A94EDC4
:1056E000040AFBF767F8FE4880ED000A90ED000A17
:1056F00004F1100104F11C0002F07AFF84ED0D0AA0
:10570000C4ED0E0A84ED0F1A94ED0D0A84ED340AEF
:1057100094ED310AD4ED340A20EE200A84ED1B0A00
:1057200094ED300AD4ED340A20EE200A84ED1D0AEF
:1057300094ED330AD4ED2B0A20EE200A84ED230ADF
:1057400094ED320AD4ED2B0A20EE200A84ED250ACE
:1057500094ED090A84ED060A94ED090AD4ED2B0AAA
:1057600030EE200ADF4880ED000A90ED000A84ED5B
:10577000090ADD48FFF778FEDC48FFF775FEDC48D4
:10578000FFF772FEDB4890ED030ADB4880ED000A6C
:10579000D84890ED040AD84880ED010AD04890ED31
:1057A000000A04F11001D44802F022FF84ED0A0A35
:1057B000C4ED0B0A84ED0C1ACE48D0ED000AC9489E
:1057C00090ED001A71EE600AB0EE600AFAF72DFF54
:1057D000CA4880ED000AC748D0ED000A94ED061AC9
:1057E00070EEC10AB0EE600AFAF71FFFC44880ED00
:1057F000000A94ED250AD0ED000AB4EEE00AF1EEBD
:1058000010FA19DD94ED250AD0ED000A80EE801A19
:10581000B0EE412AB0EE420A03F0AAF9D4ED270A0D
:1058200094ED261A30EEC11AD4ED260A40EE010A94
:10583000B448C0ED020A41E094ED250AB048D0ED2D
:10584000000AB4EEE00AF1EE10FA0FD894ED230A44
:10585000AA48D0ED000AB4EEE00AF1EE10FA05D243
:1058600094ED270AA74880ED020A27E094ED230A69
:10587000A248D0ED000AB4EEE00AF1EE10FA1DDB0A
:1058800094ED240AD0ED000AB4EEE00AF1EE10FA2D
:1058900014D294ED230AD0ED000A80EE801AB0EE07
:1058A000412AB0EE420A03F063F994ED271AD4EDD1
:1058B000270A40EE410A9348C0ED020A94ED2B0AF4
:1058C000B5EEC00AF1EE10FA08D28E4890ED020A49
:1058D000FFEE000A20EE200A80ED020A874890EDD4
:1058E000000AF6EE000AB4EEE00AF1EE10FA03D276
:1058F0009FED850A84ED2B0A94ED0A0AD4ED1D0A6A
:10590000B4EEE00AF1EE10FA18D294ED0A0AD4EDE2
:105910001D0A80EE201AB0EE412AB0EE420A03F0D2
:1059200027F9D4ED1F0A94ED1E1A30EEC11AD4EDFA
:105930001E0A40EE010AC4ED100A43E094ED0D0A80
:10594000D4ED1B0A30EE600AD4ED0A0AB4EEE00A88
:10595000F1EE10FA04DB94ED1F0A84ED100A31E039
:1059600094ED0D0AD4ED0A0A30EE600AD4ED1C0A5B
:10597000B4EEE00AF1EE10FA24DD94ED0A0AD4ED5B
:105980001B0A30EE200AD4ED0D0AB4EEE00AF1EE67
:1059900010FA17DB94ED0D0AD4ED0A0A30EE600A16
:1059A000D4ED1B0A80EE201AB0EE412AB0EE420A76
:1059B00003F00EF994ED1F1AD4ED1F0A40EE410AD0
:1059C000C4ED100AD4ED0A0A94ED0D1A70EEC10A66
:1059D000B0EE600AFAF729FEF2EE040AB4EEE00A2D
:1059E000F1EE10FA40DDD4ED0B0AB0EE600ADFED07
:1059F000460A3D48FFF7BAFDD4ED0B0A94ED0E1AA6
:105A000070EEC10AB0EE600AFAF70FFEF7EE080A70
:105A1000B4EEE00AF1EE10FA20DD334890ED0A0A08
:105A2000B5EEC00AF1EE10FA08DD90ED0A0AF0EECC
:105A3000080A30EE200A80ED0A0A0FE02A4890EDAD
:105A40000A0AB5EEC00AF1EE10FA07D290ED0A0A82
:105A5000F0EE080A30EE600A80ED0A0A224890ED66
:105A60000A0A84ED110A03E09FED270A84ED110A6A
:105A70001B4890ED000AB1EE400A211D04F14000E0
:105A800002F0B6FD214880ED000AC0ED010A80ED6C
:105A9000021A1848D0ED000AB0EE600A211D1B481A
:105AA00002F0A6FD174880ED000AC0ED010A80ED66
:105AB000021A124890ED000AF6EE000AB4EEE00A6F
:105AC000F1EE10FA06D394ED2B0AB5EEC00AF1EE12
:105AD00010FA2AD194ED091AF0EE410A054817E0B0
